:100000000C94B3000C94D6040C94D4000C94D4003B
:100010000C94D4000C94B1040C94D3030C94D4002D
:100020000C94D4000C94D4000C94D4000C94D40000
:100030000C94D4000C94D4000C94D4000C94D400F0
:100040000C94D4000C94D4000C94D4000C94D400E0
:100050000C94D4000C94D4000C94D4000C94D400D0
:100060000C94D4000C94F8030C94D4000C94D40099
:100070000C94D4000C94D4000C94D4000C94D400B0
:100080000C94D4000C94D4000C94D4000C94D400A0
:100090000C94D4000C94D4000C94D4000C94D40090
:1000A0000C94D4000C94D4000C94D4000C94D40080
:1000B0000C94D4000C94D4000C94D4000C94D40070
:1000C0000C94D4000C94D4000C94D4000C94D40060
:1000D0000C94D4000C94D4000C94D4000C94D40050
:1000E0000C94D40007634236B79BD8A71A396856D8
:1000F00018AEBAAB558C1D3CB7CC5763BD6DEDFD4A
:10010000753EF6177231BF000000803F0800000006
:10011000BE922449123EABAAAA2ABECDCCCC4C3EFC
:1001200000000080BEABAAAAAA3E00000000BF00EB
:100130000000803F0000000000084178D3BB4387E7
:10014000D1133D190E3CC3BD4282AD2B3E68EC82FB
:1001500076BED98FE1A93E4C80EFFFBE01C4FF7F80
:100160003F000000000011241FBECFEFD1E2DEBF30
:10017000CDBF00E00CBF12E0A0E0B2E0ECE1F1E3A3
:1001800000E00BBF02C007900D92A631B107D9F76E
:1001900016E0A6E1B2E001C01D92A83BB107E1F76D
:1001A0000E9447140C948C180C94000086E69EE084
:1001B0000197F1F700004098419880E388B9429A8E
:1001C000EFEFF7E43197F1F700C000004298E6E660
:1001D000FEE03197F1F700004098419888B9429AC3
:1001E000EFEFF7E43197F1F700C000004298E6E640
:1001F000FEE03197F1F700004098419888B9429AA3
:100200008FEF97E40197F1F700C000004298E6E60F
:10021000FEE03197F1F700004098419880E288B9FC
:10022000429A8FEF97E40197F1F700C000004298DF
:10023000089598B19F7098B998B1282F207F922B7C
:1002400098B940984198429AEFEFF7E43197F1F767
:1002500000C00000429898B19F7098B998B18295FB
:10026000807F892B88B940984198429A8FEF97E414
:100270000197F1F700C00000429808950E94D6004F
:1002800086E69EE00197F1F7000088E20E941901DE
:1002900081E00E94190186E00E9419018EE00E940F
:1002A000190180E80E941901089598B19F7098B9CA
:1002B00098B1282F207F922B98B9409A4198429A62
:1002C000EFEFF7E43197F1F700C00000429898B1E2
:1002D0009F7098B998B18295807F892B88B9409A90
:1002E0004198429A8FEF97E40197F1F700C0000020
:1002F0004298089580E80E9419010895CF93DF93F2
:10030000EC018881882331F021960E945501899162
:100310008823D9F7DF91CF910895823079F0833027
:1003200018F48130C9F405C0833069F08430A1F439
:100330000FC0862F81580E9419010895862F81547D
:100340000E9419010895862F8D560E941901089563
:10035000862F8D520E94190108950F931F93CF93FA
:10036000DF938A01E901882311F0662319F40E94C2
:100370007A0102C00E948D01C530D10571F4C80117
:1003800060E177E20E946518CB01C0969093A206C7
:100390008093A1060E94550103C0C430D105B9F471
:1003A000C80168EE73E00E946518CB017093A40643
:1003B0006093A3066AE070E00E946518C09690936F
:1003C000B7068093B6060E94550181E001C080E027
:1003D000C330D10511F08130B1F4C80164E670E09A
:1003E0000E946518CB017093A4066093A3066AE08F
:1003F00070E00E946518C0969093B1068093B00695
:100400000E94550181E0C230D10511F08130B1F474
:100410002AE030E0C801B9010E946518CB01709351
:10042000A4066093A306B9010E946518C096909334
:10043000AF068093AE060E94550181E0C130D10520
:1004400011F0813061F4C8016AE070E00E94651823
:10045000C0969093B5068093B4060E945501C630AD
:10046000D1051CF085E40E945501DF91CF911F91C9
:100470000F910895E4E0F1E080818FEF8083E5E063
:10048000F1E080811082089580E480930501089551
:1004900080E180930501089580E28093050108952D
:1004A000109205010895259A2D9A0895269A2E9A5C
:1004B0000895279A2F9A0895E1E8F0E010828CEFD2
:1004C0008093850081E08093840093E0909389007D
:1004D0008FEF8093880090938B0080938A00909395
:1004E0008D0080938C0090938700809386008BEA28
:1004F00080938000109282008CE080830895109297
:100500008900682F70E080E090E00E940F162BE7D2
:1005100034E14EEE5FE30E94761520E030E04CE0DF
:1005200052E40E9412150E94E3156093880008951A
:1005300010928B00682F70E080E090E00E940F1610
:100540002BE734E14EEE5FE30E94761520E030E0C9
:100550004CE052E40E9412150E94E31560938A0059
:10056000089510928D00682F70E080E090E00E9466
:100570000F162BE734E14EEE5FE30E94761520E084
:1005800030E04CE052E40E9412150E94E3156093A3
:100590008C00089583E0809389008FEF809388001A
:1005A000089583E080938B008FEF80938A000895F5
:1005B00083E080938D008FEF80938C000895CF931C
:1005C000DF93EC0180910C0290910D02C817D907BE
:1005D000ACF40E94B10280910C0290910D0201973F
:1005E00090930D0280930C02EFEFFFE83197F1F743
:1005F00000C000008C179D0761F717C08C179D077E
:10060000A4F40E94B10280910C0290910D02019617
:1006100090930D0280930C02EFEFFFE83197F1F712
:1006200000C000008C179D0761F7DF91CF910895FE
:10063000CF93DF93EC018091930690919406C817B5
:10064000D907ACF40E949802809193069091940689
:1006500001979093940680939306ECECF4E631971F
:10066000F1F700C000008C179D0761F717C08C17C9
:100670009D07A4F40E94980280919306909194069D
:1006800001969093940680939306ECECF4E63197F0
:10069000F1F700C000008C179D0761F7DF91CF9143
:1006A0000895CF93DF93EC0180910E0290910F0299
:1006B000C817D907ACF40E947F0280910E02909176
:1006C0000F02019790930F0280930E02ECECF4E678
:1006D0003197F1F700C000008C179D0761F717C034
:1006E0008C179D07A4F40E947F0280910E029091C6
:1006F0000F02019690930F0280930E02ECECF4E649
:100700003197F1F700C000008C179D0761F7DF916A
:10071000CF910895F894E9E6F0E0808182608083CB
:10072000E89A789408958AB18E6F8AB9589A089594
:100730005C9A5D9A08955E985F9808955E9A5F9AB4
:100740000895E5E0F1E0808184608083089510924F
:100750000501089581B18F6081B982B1807F82B92E
:10076000EAE0F1E0808188618083EBE0F1E0808164
:100770008861808308956C98749A08956D98759A2D
:100780000895F894EAE6F0E0808182608083EC9A34
:1007900078940895F894EAE6F0E080818860808398
:1007A000ED9A789408951F920F920FB60F9211242C
:1007B0008F939F93AF93BF9380914E0690914F0676
:1007C000A0915006B09151060196A11DB11D8093D4
:1007D0004E0690934F06A0935006B0935106BF91DA
:1007E000AF919F918F910F900FBE0F901F90189512
:1007F0001F920F920FB60F920BB60F9211248F9388
:100800009F93EF93FF938091C600E0916206F09171
:10081000630690E0EE0FFF1FEC59F94F9183808340
:10082000E0916206F0916306EE0FFF1FEC59F94F5D
:10083000808191818330910599F580916406909132
:100840006506FC01EE0FFF1F880F991F880F991F87
:10085000880F991FE80FF91FEA5EFD4F81E090E0D5
:1008600091878087E0915C06F0915D068091640637
:1008700090916506EE0FFF1FE250FA4F918380833F
:1008800080915C0690915D06019690935D06809341
:100890005C068FEF9FEF90936306809362064DC0D6
:1008A000E0916206F0916306EE0FFF1FEC59F94FDD
:1008B000808191818230910579F4809164069091D4
:1008C000650690936106809360068FEF9FEF90938B
:1008D00063068093620631C0E0916206F091630680
:1008E000EE0FFF1FEC59F94F808191818730910500
:1008F00069F481E090E090935F0680935E068FEF4D
:100900009FEF909363068093620617C0E0916206A2
:10091000F0916306EE0FFF1FEC59F94F8081918132
:100920008830910551F410925F0610925E068FEFA9
:100930009FEF909363068093620680916206909188
:10094000630601969093630680936206FF91EF9190
:100950009F918F910F900BBE0F900FBE0F901F9025
:1009600018951F920F920FB60F9211248F939F9399
:10097000AF93BF938091520690915306A091540675
:10098000B09155060196A11DB11D8093520690931A
:100990005306A0935406B0935506BF91AF919F9113
:1009A0008F910F900FBE0F901F9018951F920F926E
:1009B0000FB60F9211248F939F93AF93BF938091A3
:1009C000560690915706A0915806B0915906019687
:1009D000A11DB11D8093560690935706A09358060B
:1009E000B0935906BF91AF919F918F910F900FBE19
:1009F0000F901F90189592B1907F8F70982B92B99D
:100A0000089586E00E94FB04089589E00E94FB049B
:100A1000089585E00E94FB0408958AE00E94FB048B
:100A2000089580E00E94FB0408950F931F93682FA0
:100A300070E080E090E00E940F162FEE39EC43E961
:100A40005FE30E940017B62FA72F382F292F60E0F1
:100A500070E080E89FE3422F0B2F1A2F232F342FB3
:100A6000A90198010E9476152AE939EF4EE255E472
:100A70000E949D1620E030E040E251E40E949D1665
:100A80000E94DE15882777FD8095982F0E94111609
:100A90000E94DE15862F972F23E08132920710F0F7
:100AA00080E293E01F910F9108950F931F93CF93CE
:100AB000BC0180E090E00E940F1628E431EE42E88D
:100AC00050E40E9476150E94E315DC01CB01A0E002
:100AD000B0E010924E0610924F06109250061092FF
:100AE000510610925206109253061092540610921C
:100AF0005506F1E0C0E040914E0650914F066091DE
:100B000050067091510600915206109153062091A3
:100B1000540630915506EF2F481759076A077B078F
:100B200008F4EC2FEE2349F44F2F081719072A0772
:100B30003B0708F44C2F4423F1F2CF911F910F9102
:100B40000895BC0180E090E00E940F1625EE30ED84
:100B50004AEA50E40E9476150E94E315462F572F6B
:100B6000682F792F10924E0610924F061092500661
:100B70001092510680914E0690914F06A09150061A
:100B8000B0915106481759076A077B0798F70895EF
:100B9000CF93DF93EC010E940105CE010E94A105D5
:100BA000DF91CF910895CF93DF93EC010E94090567
:100BB000CE010E945505DF91CF910895CF93DF9329
:100BC000EC010E940D05CE010E945505DF91CF91E9
:100BD000089587B1876F87B988B1807888B90895FB
:100BE00010BA11BA109207011092080108953B9AA9
:100BF000439808950E94AA030E94BB030E94BE036B
:100C00000E94F7050E94E9050E94F0050E94AA03D0
:100C10000E9453020E9456020E9459020E949303AE
:100C20000E943A020895E1E2F1E010828FEF809392
:100C3000250191E0909324011092290180932801CD
:100C400010922B0180932A0110922D0180932C0188
:100C500089EA809320018BE080830895E1ECF0E045
:100C600010821092C00086E08093C2008FE58093CE
:100C7000C4001092C50088E980830895EAE7F0E097
:100C8000108210927B0080E280937C0080E880BF1D
:100C900086E880830895883018F098E090937B0070
:100CA0008770806280937C00EAE7F0E08081806456
:100CB0008083808184FFFDCF80917900EAE7F0E0B6
:100CC00090819061908310927B000895CF93DF9381
:100CD000D82FC62F842F0E944B06482F8093AD0635
:100CE0008D2F6C2F50E023E030E00E94AD01DF91AA
:100CF000CF9108950F931F93CF93DF9320919B067D
:100D000030919C06C9016AE070E00E94791880FF6A
:100D1000C7C0C9016AE070E00E94791860FFC0C0D6
:100D20008BE00E944B060E941505EC0182E061E019
:100D3000AE0123E030E00E94AD012197C53ED10510
:100D400008F0AEC081E090E090935B0680935A0675
:100D500082E061E04BE00E946606809195069091EA
:100D6000960620919D0630919E068217930739F4CE
:100D700000919B0610919C06065F1F4F29C0209191
:100D80001202309113028217930739F400919B06E7
:100D900010919C060A5010401BC020911402309103
:100DA00015028217930739F400919B0610919C0657
:100DB0000F5F1F4F0DC0209110023091110282175A
:100DC000930731F400919B0610919C06015010404E
:100DD000B80180916006909161060817190709F41F
:100DE0005FC08091FE059091FF05009719F18091F9
:100DF000FE059091FF050817190709F451C020E07E
:100E000030E04EEF55E00BC0F901EE0FFF1FE40F8D
:100E1000F51F808191816817790709F441C02F5F20
:100E20003F4FF901EE0FFF1FE40FF51F8081918105
:100E3000009751F7E0915C06F0915D06EE0FFF1F01
:100E4000E250FA4F71836083F801EE0FFF1FC80173
:100E5000880F991F880F991F880F991FE80FF91F96
:100E6000EA5EFD4F81E090E091878087E6ECF0E05C
:100E700000838FEF97E40197F1F700C0000083E053
:100E800080838FEF97E40197F1F700C00000809115
:100E90005C0690915D06019690935D0680935C06DA
:100EA000DF91CF911F910F91089580932801609356
:100EB0002A010895F8940E94FA050E943E060E94B5
:100EC00013060E945C020E942E060E94C1030E942B
:100ED000CA030E948A037894089586B1886088B90D
:100EE000089586B1877F88B90895CF93DF93EC0189
:100EF0008FEF6FEF0E945507CE010E94D30582E06D
:100F00000E944B0680936906863480F40E9409058E
:100F100082E00E944B0680936906863438F482E0B2
:100F20000E944B06809369068634C8F382E393EBF4
:100F3000A2E081509040A040E1F700C000C00E94B4
:100F40001105DF91CF910895CF93DF93EC018FEFDF
:100F50006FEF0E945507CE010E94DE0582E00E94DD
:100F60004B0680936906863480F40E940D0582E06A
:100F70000E944B0680936906863438F482E00E9412
:100F80004B06809369068634C8F382E393EBA2E0B4
:100F900081509040A040E1F700C000C00E941105C0
:100FA000DF91CF9108959C016AE070E00E9479186A
:100FB000E82FF92F80FD07C0C9016AE070E00E94A8
:100FC000791860FF0CC0309769F02B50304081E0F9
:100FD00090E02935310540F080E090E0089580E010
:100FE00090E0089580E090E008959C016AE070E050
:100FF0000E947918009759F02B3031055CF081E0A0
:1010000090E02436310544F080E090E0089580E0DF
:1010100090E0089580E090E008958F929F92AF92C3
:10102000BF92CF92DF92EF92FF920F931F93CF93D5
:10103000DF930F2EF5E1EF2EFF24F02DCC24DD24DD
:10104000C3940F2EFAE0AF2EBB24F02D0CE010E07D
:101050000F2EF6E18F2EF2E09F2EF02DE801219762
:10106000CE010E94D307009709F4B1C0C7010E94C6
:10107000D307009791F0CE01880F991F9E01220F90
:10108000331F220F331F220F331F820F931F880D30
:10109000991DFC01F182E08211C0CE01880F991FD9
:1010A0009E01220F331F220F331F220F331F820F87
:1010B000931F880D991DFC0111821082C8010E94A6
:1010C000D307009791F0CE01880F991F9E01220F40
:1010D000331F220F331F220F331F820F931F880DE0
:1010E000991DFC011383028311C0CE01880F991F43
:1010F0009E01220F331F220F331F220F331F820F37
:10110000931F880D991DFC0113821282C6010E9453
:10111000D307009791F0CE01880F991F9E01220FEF
:10112000331F220F331F220F331F820F931F880D8F
:10113000991DFC01D582C48211C0CE01880F991F70
:101140009E01220F331F220F331F220F331F820FE6
:10115000931F880D991DFC0115821482C5010E9400
:10116000D307009791F0CE01880F991F9E01220F9F
:10117000331F220F331F220F331F820F931F880D3F
:10118000991DFC01B782A68211C0CE01880F991F5C
:101190009E01220F331F220F331F220F331F820F96
:1011A000931F880D991DFC01178216829E01220F44
:1011B000331FCE01880F991F880F991F880F991F21
:1011C000820F931F880D991DFC01118610860F5FF9
:1011D0001F4F0894A11CB11C0894C11CD11C089479
:1011E000E11CF11C0536110509F038CFDF91CF91D4
:1011F0001F910F91FF90EF90DF90CF90BF90AF9035
:101200009F908F90089580919B0690919C066AE034
:1012100070E00E947918AC01809195069091960635
:1012200020919D0630919E0682179307A1F46F5F6F
:101230007F4FCB01880F991F660F771F660F771FAF
:10124000660F771F860F971F480F591F50939C06F4
:1012500040939B060895209110023091110282174D
:101260009307A1F4CB01880F991F660F771F660FB4
:10127000771F660F771F860F971F41505040840FCE
:10128000951F90939C0680939B06089520911402CD
:101290003091150282179307A1F4CB01880F991F93
:1012A000660F771F660F771F660F771F860F971FD2
:1012B0004F5F5F4F840F951F90939C0680939B0612
:1012C000089520911202309113028217930799F426
:1012D00061507040CB01880F991F660F771F660F12
:1012E000771F660F771F860F971F480F591F509360
:1012F0009C0640939B060895EF92FF920F931F93D5
:10130000CF93DF93EBE6F6E020E030E0BF010FEF94
:101310001FEFEE24FF246894E2F8223031052CF010
:1013200080819181009739F56DC086819781009702
:1013300009F46BC0C901880F991F880F991F880F86
:10134000991F860F971FDC0114968D919C9115971C
:10135000009759F082819381009751F080819181AB
:10136000009741F540E050E02FC042E050E02CC033
:1013700041E050E029C0C901880F991F880F991FCB
:10138000880F991F860F971FEC018A819B81009718
:1013900059F084819581009751F08681978100975B
:1013A00059F443E050E010C041E050E00DC042E08D
:1013B00050E00AC0A80101C0A7012F5F3F4F389637
:1013C0002430310509F0A9CF2F5F3F4F220F331F83
:1013D000B901660F771FC901880F991F880F991FE0
:1013E000880F991F680F791F4F5F5F4FCA01880FE1
:1013F000991F860F971FDF91CF911F910F91FF903B
:10140000EF90089540E050E0DFCF43E050E0DCCFC4
:10141000EF92FF920F931F93CF93DF932BE836E069
:10142000AC01465F5F4F50938C0640938B06AC0136
:101430004F5F5F4F50938E0640938D06AC014A502C
:1014400050405093900640938F06019790939206D8
:1014500080939106D901B901685F7F4FEEEFF5E007
:1014600000E010E01FC0C901880F991F8E0F9F1F59
:10147000EC01888199818417950721F4E70119828D
:1014800018820CC02F5F3F4FC901880F991F8E0F24
:101490009F1FEC0188819981009729F71296A61762
:1014A000B70779F0808191810097C1F380819181A4
:1014B0007D014D915C91119784179507F9F2980180
:1014C000E1CFDF91CF911F910F91FF90EF900895A1
:1014D000CF93DF93A82FB92FE62FF72FC0E0D0E0EE
:1014E00067EE73E020E030E04D915D9146175707BD
:1014F00034F480819181009711F4E901BA012F5FE2
:101500003F4F32962436310579F78C2F9D2FDF918E
:10151000CF9108952F923F924F925F926F927F9258
:101520008F929F92AF92BF92CF92DF92EF92FF92F3
:101530000F931F93CF93DF93CDB7DEB7C652D3403F
:101540000FB6F894DEBF0FBECDBFCD5DDC4F9983E3
:101550008883C352D3404B011A01FE01319688ECB7
:10156000DF011D928A95E9F7FE01EF56FE4FDE017D
:10157000A753BF4FCE01875A9D4F2FEF3FEF47EE46
:1015800053E0219331934D935D93E817F907C9F721
:10159000C401880F991FFE01E80FF91F21E030E018
:1015A00032832183E9ECF0E0EC0FFD1FE80FF91F17
:1015B00011821082E1E9F1E0EC0FFD1F8E0F9F1FF9
:1015C000DC0111969C928E9220E030E0C401880FDD
:1015D000991F880F991FAC01480D591D66E172E0F3
:1015E000EE24FF24E394CA01820F931F880F991FF2
:1015F000860F971FFC0180819181009719F1CA0124
:10160000820F931F880F991FFB01E80FF91F80813C
:101610009181880F991F09EC10E00C0F1D1F800F9E
:10162000911FDC01ED92FC9280819181880F991FBE
:10163000E1E9F1E0EC0FFD1F8E0F9F1FDC01119619
:101640009C928E922F5F3F4F2430310561F60F2E12
:10165000F1E4EF2EFF24F02D6624772463944424D4
:10166000552406E112E0CE0187539F4FBE016F5F04
:101670007F4F0E94680ACB5DDC4F99838883C552F7
:10168000D340880F991FE1E0F0E0EC0FFD1F8E0FB3
:101690009F1FDC016D927C92A201CB5DDC4F8881A3
:1016A0009981C552D340880F991F880F991FCB5D30
:1016B000DC4FE881F981C552D340E80FF91FCB5DBB
:1016C000DC4F88819981C552D340880F991F0F2E16
:1016D000F9ECCF2EDD24F02DCC0EDD1EC80ED91E68
:1016E000CB5DDC4F28813981C552D340220F331F97
:1016F000220F331F220F331F820F931F800F911F62
:10170000AA24BB246894A3F8A80EB91ECF01840FA5
:10171000951F880F991F800F911FDC018D919C915F
:101720001197009709F449C02D913C91D6018D91F4
:101730009C91BC016F5F7F4FC901880F991F29ECF5
:1017400030E02C0F3D1F820F931FDC018D919C9187
:101750001197681779078CF5D5018D919C91119798
:10176000009759F5CF01840F951F880F991F980195
:10177000280F391FD9018D919C91880F991FA9ECD1
:10178000B0E0AC0FBD1F8A0F9B1FDC016D937C93F3
:10179000D9018D919C91880F991F21E931E02C0F7F
:1017A0003D1F820F931FCB5DDC4F28813981C552CD
:1017B000D340DC0111963C932E934F5F5F4F443032
:1017C000510509F0A3CF0894E108F108E114F104F0
:1017D00009F049CFC75ADD4F39822882C955D24016
:1017E000F101EE0FFF1F61E971E06C0F7D1FE60F45
:1017F000F71F8081918188169906D1F0FE01E55A84
:10180000FD4F21E030E0A90181939193880F991F4A
:10181000A1E9B1E0AC0FBD1F8A0F9B1FDC018D91C8
:101820009C9111972F5F3F4F8816990661F702C070
:1018300040E050E04F5F5F4FFA01EE0FFF1F09E5F8
:1018400012E00C0F1D1FE00FF11F91828082CD5D11
:10185000DC4FA881B981C352D340F8018AEC0190D2
:101860000D928150E1F7CD5DDC4FE881F981C352E3
:10187000D340E853FF4F51834083CD5DDC4F8881D7
:101880009981C352D340CA5DDC4F0FB6F894DEBFD6
:101890000FBECDBFDF91CF911F910F91FF90EF90C1
:1018A000DF90CF90BF90AF909F908F907F906F9080
:1018B0005F904F903F902F9008952F923F924F92BC
:1018C0005F926F927F928F929F92AF92BF92CF92D0
:1018D000DF92EF92FF920F931F93CF93DF93CDB7D9
:1018E000DEB7C659D1400FB6F894DEBF0FBECDBFEC
:1018F0001C010F2EFBE8AF2EF6E0BF2EF02D662464
:101900007724689463F86A0C7B1C4424552407EE02
:1019100013E0F501419151915F014115510509F421
:10192000ACC060919B0670919C06CE0101960E940E
:101930008A0AC753DF4F88809980C95CD0408114E0
:10194000910409F493C0801691066CF4FE01E553EE
:10195000FF4FDE0111968AEC0D9001928150E1F764
:10196000240184018AC08016910609F081C0F2E04A
:101970008F1691040CF47EC0FE013196DE01A55352
:10198000BF4F01E010E0EE24FF24CC24DD24CB5631
:10199000DE4FF983E883C559D140CB56DE4F6881CD
:1019A0007981C559D140FB01428153810F5F1F4F9F
:1019B000808191819C01241B350B1AF4309521956F
:1019C0003F4FFB0184819581BA01681B790BCB01E4
:1019D00099231CF4909581959F4F2817390719F08A
:1019E0000894C11CD11CBD0112964D915C911397B6
:1019F0008D919C9111979C01241B350B1AF4309505
:101A000021953F4FFB0184819581BA01681B790BB9
:101A1000CB0199231CF4909581959F4F2817390786
:101A200019F00894E11CF11CCB56DE4F8881998196
:101A3000C559D1400296CB56DE4F99838883C5594C
:101A4000D14012960815190509F0A7CFCE14DF046E
:101A50009CF4FE01E553FF4FDE0111968AEC0D90D8
:101A600001928150E1F72401840107C0820105C081
:101A7000820103C0820101C08201A614B70409F0EB
:101A800048CFD101FE01E553FF4F8AEC01900D9242
:101A90008150E1F7F101E853FF4F51824082C101CB
:101AA000CA56DE4F0FB6F894DEBF0FBECDBFDF9132
:101AB000CF911F910F91FF90EF90DF90CF90BF904B
:101AC000AF909F908F907F906F905F904F903F90DE
:101AD0002F900895CF93DF9383E00E944B0680936D
:101AE0006A0682E00E944B068093690681E00E94AC
:101AF0004B068093680681E061E043E00E94660641
:101B000081E065E042E00E94660681E069E041E034
:101B10000E94660630916A06209169064091680627
:101B2000822F90E0830F911D840F911D89379105BD
:101B30000CF46CC080919B0690919C06009799F4E0
:101B40008FE090E090939C0680939B0680919D0689
:101B500090919E0690939606809395068CE390E074
:101B60000E94C80579C0C6ECD0E088838FEF97E467
:101B70000197F1F700C0000080919B0690919C06B0
:101B80000E94030980919B0688838FEF97E4019759
:101B9000F1F700C0000082E088838FEF97E401979F
:101BA000F1F700C000008FEF6FEF0E945507C09162
:101BB0009B06D0919C060E947A06CE016AE070E0F6
:101BC0000E94791880FF0CC0CE016AE070E00E948C
:101BD000791860FF05C08DE290E00E94C80504C03E
:101BE00084E190E00E94C80580915E0690915F06B6
:101BF0008130910511F40E94110580915E0690914B
:101C00005F060097D1F70E94010526C0203138F009
:101C10000E9401058FEF6FEF0E9455075DCF3031B5
:101C200048F00E9411058CE86CE80E9455070E945C
:101C3000090552CF403148F00E9411058CE86CE84C
:101C40000E9455070E940D0547CF0E9401058FEFA6
:101C50006FEF0E94550740CFDF91CF9108950F930A
:101C60001F93CF93DF93EC018B010E941105209706
:101C700021F40115110551F550C0CE010E940F113C
:101C8000CE0164E170E00E947918FB013197CE012A
:101C90006AE070E00E9479189C01992314F42F5F88
:101CA0003F4FC90195958795EE0FFF1FEE0FFF1F60
:101CB0008E0F9F1FFC01EE0FFF1FE759F94F81E0C8
:101CC00090E0918380830115110539F1C8010E94CC
:101CD0000F11C80164E170E00E9479189B01215046
:101CE0003040C8016AE070E00E947918AC01992385
:101CF00014F44F5F5F4FCA0195958795F901EE0F78
:101D0000FF1FEE0FFF1FE80FF91FEE0FFF1FE75930
:101D1000F94F81E090E091838083DF91CF911F9113
:101D20000F9108950F931F93CF93DF9320919B06FC
:101D300030919C06C9016AE070E00E94791880FF2A
:101D400007C0C9016AE070E00E94791860FD92C086
:101D5000809195069091960640919D0650919E0621
:101D60008417950739F0409112025091130284179D
:101D7000950731F4890101501040E901219605C011
:101D800089010A501040E9012A96C8010E94F5070E
:101D9000009751F1C8016AE070E00E947918CB0108
:101DA00099230CF40196FC01F595E7953197C8014C
:101DB0006AE070E00E94791899230CF401969C0166
:101DC00035952795CF01880F991F880F991F820F8E
:101DD000931FFC01EE0FFF1FE759F94F808191819E
:101DE0008130910531F403C000E010E002C000E052
:101DF00010E0CE010E94F507009751F1CE016AE094
:101E000070E00E947918CB0199230CF40196FC0133
:101E1000F595E7953197CE016AE070E00E94791858
:101E200099230CF401969C0135952795CF01880FD5
:101E3000991F880F991F820F931FFC01EE0FFF1F40
:101E4000E759F94F808191818130910531F403C0C8
:101E5000C0E0D0E002C0C0E0D0E0C801BE010E94F6
:101E60002F0E85E08093C6008FEF97E40197F1F77E
:101E700000C00000DF91CF911F910F9108950E9443
:101E80009B03109256061092570610925806109215
:101E900059068FEF9FE7A4E081509040A040E1F702
:101EA00000C000008091560690915706A0915806F8
:101EB000B09159068093A9069093AA06A093AB0609
:101EC000B093AC0608950E949E031092560610929D
:101ED0005706109258061092590689E999EDA5E027
:101EE00081509040A040E1F700008091560690910B
:101EF0005706A0915806B09159068093A506909375
:101F0000A606A093A706B093A8060895CF93DF93E3
:101F100086E966E90E9455070E94A1038FEF9FE7BB
:101F2000A4E081509040A040E1F700C000000E9472
:101F30003F0F0E94630F4091A5065091A606609145
:101F4000A7067091A8068091A9069091AA06A09173
:101F5000AB06B091AC06C1E0D0E084179507A607A8
:101F6000B70710F0C0E0D0E087E090E00E94D30512
:101F70000E943F0F0E94630F4091A5065091A60654
:101F80006091A7067091A8068091A9069091AA0673
:101F9000A091AB06B091AC0684179507A607B707CA
:101FA00008F421968AE090E00E94DE050E943F0F2F
:101FB0000E94630F4091A5065091A6066091A70666
:101FC0007091A8068091A9069091AA06A091AB06EF
:101FD000B091AC0684179507A607B70708F42196B9
:101FE0008FE090E00E94D3051C161D063CF489E0AA
:101FF00090E09093B3068093B20606C088E090E02C
:102000009093B3068093B2060E94A7030E94110525
:10201000DF91CF910895CF93C82F84E190E00E9483
:10202000DF028FEF9FEFA8E081509040A040E1F7E2
:1020300000C0000088E790E00E9418038FEF9FEF38
:10204000A8E081509040A040E1F700C0000085E585
:1020500090E00E94DF028FEF9FEFA8E08150904058
:10206000A040E1F700C0000084E690E00E94180361
:102070008FEF9FEFA8E081509040A040E1F700C0B3
:102080000000CC34C9F584E190E00E9451038FEF49
:102090009FEFA8E081509040A040E1F700C0000011
:1020A00083E790E00E9418038FEF9FEFA8E0815034
:1020B0009040A040E1F700C0000084E190E00E9461
:1020C000DF028FEF9FEFA8E081509040A040E1F742
:1020D00000C0000080E590E00E9418038FEF9FEFA2
:1020E000A8E081509040A040E1F700C0000080E0EF
:1020F00090E00E94510338C080EA90E00E945103B2
:102100008FEF9FEFA8E081509040A040E1F700C022
:10211000000083E790E00E9418038FEF9FEFA8E094
:1021200081509040A040E1F700C0000084E190E0C1
:102130000E94DF028FEF9FEFA8E081509040A04007
:10214000E1F700C0000080E590E00E9418038FEFE7
:102150009FEFA8E081509040A040E1F700C0000050
:1021600084EB90E00E9451038FEF9FEFA8E0815035
:102170009040A040E1F700C000008AE590E00E9496
:10218000DF028FEF9FEFA8E081509040A040E1F781
:1021900000C0000086E890E00E9418038FEF9FEFD8
:1021A000A8E081509040A040E1F700C000000E94EC
:1021B000860F8091B2069091B3068830910519F48C
:1021C0000E94440205C08930910511F40E944C021E
:1021D0008FEF9FEFA9E581509040A040E1F700C04C
:1021E00000000E94500280E090E00E9418038FEFF0
:1021F0009FEFA8E081509040A040E1F700C00000B0
:1022000084E190E00E94DF028FEF9FEFA8E0815011
:102210009040A040E1F700C00000CF910895EF92F8
:10222000FF921F93CF93DF937C01C0919B06D091C7
:102230009C06C81BD90BC130D10559F420919506D5
:102240003091960680919D0690919E062817390739
:1022500021F180919506909196062091120230917D
:1022600013028217930721F42FEFCF3FD207A9F073
:10227000CA30D10539F42091100230911102821731
:10228000930759F020911402309115028217930799
:1022900041F48FEFC63FD80721F480E090E00E9420
:1022A00051039FEFCF3FD90759F420919506309104
:1022B000960680919D0690919E062817390719F180
:1022C000809195069091960620911202309113020A
:1022D0008217930719F4C130D105A9F0AFEFC63FBB
:1022E000DA0739F420911002309111028217930716
:1022F00051F020911402309115028217930749F48E
:10230000CA30D10541F484EB90E00E94510312E5FC
:1023100003C01CE401C01CE48FEF9FEFA8E08150D4
:102320009040A040E1F700C000008BE00E944B0607
:102330000E941505EC0182E061E0AE0123E030E08F
:102340000E94AD016597C33BD105F0F4812F0E9437
:102350000B108091B206E6ECF0E08083AFEFB7E4BB
:102360001197F1F700C00000E0828FEF97E401972A
:10237000F1F700C0000084E08083AFEFB7E411976D
:10238000F1F700C000001DC08BE00E944B060E94C8
:102390001505AC0182E061E023E030E00E94AD0170
:1023A0000E946D070E9448028FEF9FEFA9E58150C0
:1023B0009040A040E1F700C000000E9471070E9419
:1023C00050028AE590E00E9451030E94110580911D
:1023D0009706909198060196909398068093970699
:1023E000DF91CF911F91FF90EF90089520911402FB
:1023F000309115022817390749F48FEF6FEF0E94CB
:10240000550786E490E00E9475071FC020911002D6
:10241000309111022817390749F48FEF6FEF0E94AE
:10242000550786E490E00E94A4070FC02091120295
:10243000309113022817390741F48FEF6FEF0E9494
:10244000550780EA90E00E94A40780919D06909134
:102450009E06909396068093950608952091140207
:10246000309115022817390749F48FEF6FEF0E945A
:10247000550786E490E00E94A4071FC02091100237
:10248000309111022817390749F48FEF6FEF0E943E
:10249000550786E490E00E9475070FC020919D06C5
:1024A00030919E062817390741F48FEF6FEF0E9495
:1024B000550780EA90E00E94A40780911202909153
:1024C00013029093960680939506089520919D0699
:1024D00030919E062817390749F48FEF6FEF0E945D
:1024E000550786E490E00E9475071FC020911202F4
:1024F000309113022817390749F48FEF6FEF0E94CC
:10250000550786E490E00E94A4070FC020911402B2
:10251000309115022817390741F48FEF6FEF0E94B1
:10252000550780EA90E00E94A407809110029091E4
:1025300011029093960680939506089520919D062A
:1025400030919E068217930749F48FEF6FEF0E9438
:10255000550786E490E00E94A4071FC02091120254
:10256000309113028217930749F48FEF6FEF0E94A7
:10257000550786E490E00E9475070FC02091100275
:10258000309111028217930741F48FEF6FEF0E9491
:10259000550780EA90E00E94A40780911402909170
:1025A000150290939606809395060895CF92DF9238
:1025B000EF92FF920F931F93CF93DF937C016B01F8
:1025C00082E065E0A70122E030E00E94AD0182E0F8
:1025D00068E0A60122E030E00E94AD01EC14FD04A9
:1025E00009F458C02AE030E0C701B9010E94791807
:1025F0008B01C601B9010E947918EB010617170774
:10260000E9F06017710764F4809195069091960641
:102610000E942E1201501040C017D107A9F70EC01A
:10262000061717075CF480919506909196060E9414
:10263000F6110F5F1F4FC017D107A9F72AE030E04E
:10264000C701B9010E9479188C01C601B9010E9425
:102650007918EC0108171907E9F08017910764F45D
:1026600080919506909196060E9466120150104046
:10267000C017D107A9F70EC0081719075CF480919D
:102680009506909196060E949E120F5F1F4FC017ED
:10269000D107A9F70E947A060E94920E80915A06ED
:1026A00090915B068130910511F00E946A0DDF91D7
:1026B000CF911F910F91FF90EF90DF90CF900895F1
:1026C000EF92FF920F931F93CF93DF93CDB7DEB7B7
:1026D000CE52DF4FE880F980C25DD0401E141F0447
:1026E0000CF58701000F111F8AE090E08C0F9D1FF1
:1026F000080F191FF80180819181729162918F01F9
:102700000E94D61280915A0690915B068130910505
:1027100019F40E94110508C00894E108F108E114B9
:10272000F10441F70E94920EDF91CF911F910F911A
:10273000FF90EF900895CF93DF93CDB7DEB7C253EC
:10274000DF4F88819981CE5CD0409923DCF0FC0179
:102750003196EE0FFF1F26E030E02C0F3D1FE20FF9
:10276000F31F46EC50E032972081DA012C93AFEF53
:10277000B7E41197F1F700C000000197BFEF8F3F5A
:102780009B0789F781E08093C6008FEF9FE3A2E06B
:1027900081509040A040E1F700C00000DF91CF9150
:1027A0000895AF92BF92DF92EF92FF920F931F9323
:1027B000CF93DF93CDB7DEB7C25DD0400FB6F894AC
:1027C000DEBF0FBECDBFDE011196E0E0F2E088E093
:1027D00001900D928150E1F78E01075F1F4FAA24EF
:1027E000BB240F2EFAECDF2EF02D60919B0670912A
:1027F0009C06FE013196750121913191CB01821B1E
:10280000930B1AF4909581959F4F43E0873E940770
:102810000CF47901E017F10779F7C801A7010E94CC
:102820008A0A8DB79EB78A5C90400FB6F8949EBF17
:102830000FBE8DBFEDB7FEB73196D8018D2D0D902F
:1028400001928150E1F70E9460138DB79EB78653C5
:102850009F4F0FB6F8949EBF0FBE8DBF80919B0611
:1028600090919C06E816F90609F0BFCFCE52DF4FD3
:102870000FB6F894DEBF0FBECDBFDF91CF911F9191
:102880000F91FF90EF90DF90BF90AF9008951F934E
:10289000CF93DF93CDB7DEB7CA5CD0400FB6F894C4
:1028A000DEBF0FBECDBF0E945A070E94D6000E9415
:1028B0003E010E9498030E940D088AE50E947F0253
:1028C0008FEF9FE7ADE081509040A040E1F700C05E
:1028D000000084E10E94B1028FEF9FE7ADE08150DC
:1028E0009040A040E1F700C0000080E00E94980204
:1028F0008FEF9FE7ADE081509040A040E1F700C02E
:1029000000000E94CA020E94D1020E94D8020E94C6
:102910006A0D0E947A061AEC0E94110580915A06EF
:1029200090915B068130910521F410925B06109224
:102930005A06809197069091980680319105E1F4AE
:102940000E94110587E08093C600AFEFB7E41197AE
:10295000F1F700C000000E94D1130E94110580E031
:1029600090E0C653DF4F0FB6F894DEBF0FBECDBF69
:10297000DF91CF911F9108950E947C0990939A0650
:10298000809399060E94080ACE0101960E945D0C70
:102990008DB79EB78A5C90400FB6F8949EBF0FBE6D
:1029A0008DBFADB7BEB71196FE013196812F019054
:1029B0000D928150E1F70E949B13ADB7BEB7A653AD
:1029C000BF4F0FB6F894BEBF0FBEADBF8DB79EB759
:1029D0008A5C90400FB6F8949EBF0FBE8DBFADB716
:1029E000BEB71196FE013196812F01900D92815054
:1029F000E1F70E946013ADB7BEB7A653BF4F0FB645
:102A0000F894BEBF0FBEADBF8BE00E944B060E9484
:102A10001505AC0182E061E023E030E00E94AD01E9
:102A20007BCF5058BB27AA270ED04DC13ED130F0E6
:102A300043D120F031F49F3F11F41EF433C10EF462
:102A4000E095E7FB29C1E92F4FD180F3BA17620760
:102A500073078407950718F071F49EF567C10EF4AB
:102A6000E0950B2EBA2FA02D0B01B90190010C019E
:102A7000CA01A0011124FF27591B99F0593F50F4B6
:102A8000503E68F11A16F040A22F232F342F44270E
:102A9000585FF3CF469537952795A795F040539506
:102AA000C9F77EF41F16BA0B620B730B840BBAF0D6
:102AB0009150A1F0FF0FBB1F661F771F881FC2F741
:102AC0000EC0BA0F621F731F841F48F48795779555
:102AD0006795B795F7959E3F08F0B3CF9395880F0C
:102AE00008F09927EE0F9795879508950CD0EBC0C5
:102AF000E3D040F0DAD030F021F45F3F19F0CCC0E1
:102B0000511115C1CFC0F0D098F39923C9F35523C3
:102B1000B1F3951B550BBB27AA27621773078407D0
:102B200038F09F5F5F4F220F331F441FAA1FA9F386
:102B300033D00E2E3AF0E0E830D091505040E69578
:102B4000001CCAF729D0FE2F27D0660F771F881FD9
:102B5000BB1F261737074807AB07B0E809F0BB0BC8
:102B6000802DBF01FF2793585F4F2AF09E3F5105EC
:102B700068F092C0DCC05F3FECF3983EDCF38695D2
:102B800077956795B795F7959F5FC9F7880F911D62
:102B90009695879597F90895E1E0660F771F881F4E
:102BA000BB1F621773078407BA0720F0621B730B01
:102BB000840BBA0BEE1F88F7E095089504D0689453
:102BC000B111B5C0089598D088F09F5790F0B92FF3
:102BD0009927B751A0F0D1F0660F771F881F991F72
:102BE0001AF0BA95C9F712C0B13081F09FD0B1E0A8
:102BF00008959CC0672F782F8827B85F39F0B93FB8
:102C0000CCF3869577956795B395D9F73EF4909573
:102C10008095709561957F4F8F4F9F4F0895E894F1
:102C200009C097FB3EF490958095709561957F4F14
:102C30008F4F9F4F9923A9F0F92F96E9BB279395C2
:102C4000F695879577956795B795F111F8CFFAF4D2
:102C5000BB0F11F460FF1BC06F5F7F4F8F4F9F4F03
:102C600016C0882311F096E911C0772321F09EE861
:102C7000872F762F05C0662371F096E8862F70E0C7
:102C800060E02AF09A95660F771F881FDAF7880FA1
:102C90009695879597F9089597F99F6780E870E072
:102CA00060E008959FEF80EC089500240A941616C2
:102CB000170618060906089500240A94121613062A
:102CC000140605060895092E0394000C11F48823B8
:102CD00052F0BB0F40F4BF2B11F460FF04C06F5FD4
:102CE0007F4F8F4F9F4F089557FD9058440F551FAA
:102CF00059F05F3F71F04795880F97FB991F61F07E
:102D00009F3F79F087950895121613061406551FF4
:102D1000F2CF4695F1DF08C0161617061806991F60
:102D2000F1CF86957105610508940895E894BB2755
:102D300066277727CB0197F908950BD0C4CFB5DF6D
:102D400028F0BADF18F0952309F0A6CFABCF1124F5
:102D5000EECFCADFA0F3959FD1F3950F50E0551F3A
:102D6000629FF001729FBB27F00DB11D639FAA27E0
:102D7000F00DB11DAA1F649F6627B00DA11D661F2F
:102D8000829F2227B00DA11D621F739FB00DA11D50
:102D9000621F839FA00D611D221F749F3327A00D0A
:102DA000611D231F849F600D211D822F762F6A2FA6
:102DB00011249F5750408AF0E1F088234AF0EE0F2B
:102DC000FF1FBB1F661F771F881F91505040A9F738
:102DD0009E3F510570F060CFAACF5F3FECF3983E65
:102DE000DCF3869577956795B795F795E7959F5F9F
:102DF000C1F7FE2B880F911D9695879597F9089539
:102E0000FA01EE0FFF1F30962105310599F161158A
:102E1000710561F48038BFE39B0749F168949038ED
:102E2000810561F08038BFEF9B0741F0992342F59F
:102E3000FF3FE1053105210511F1E8940894E7957C
:102E4000D901AA2329F4AB2FBE2FF85FD0F310C00D
:102E5000FF5F70F4A695E0F7F73950F019F0FF3AEC
:102E600038F49F779F930CD00F9007FC90580895EB
:102E70003EF018CF60E070E080E89FE308954FE7F0
:102E80009F775F934F933F932F939ED02F913F91C6
:102E90004F915F9152DF05C019F40EF0FDCE46CF81
:102EA00001CF2ADFC8F39638C0F707F80F92E894ED
:102EB0002BE33AEA48EB5FE74EDF0F920F920F9257
:102EC0004DB75EB70F92C0D0E4EEF0E016D04F9150
:102ED0005F91EF91FF91E595EE1FFF1F49F0FE57BF
:102EE000E0684427EE0F441FFA95E1F74195550B32
:102EF00032D00F9007FE26C00895DF93CF931F9323
:102F00000F93FF92EF92DF927B018C01689405C0D2
:102F1000DA2EEF011EDFFE01E894A591259135918F
:102F200045915591AEF3EF018EDDFE019701A801A9
:102F3000DA9479F7DF90EF90FF900F911F91CF9186
:102F4000DF9108959B01AC0160E070E080E89FE3B1
:102F5000CDCDA2CEACC0D0DEE8F39923D9F3940F47
:102F6000511DBBF39150504094F059F0882332F03A
:102F7000660F771F881F91505040C1F79E3F510543
:102F800044F7880F911D9695879597F908955F3FAF
:102F9000ACF0983E9CF0BB27869577956795B795E2
:102FA00008F4B1609395C1F7BB0F58F711F460FFB7
:102FB000E8CF6F5F7F4F8F4F9F4FE3CFB8CE0EF0BC
:102FC00076C070CE689468CE97DEC8F39923D1F3AB
:102FD000C6F3DF93CF931F930F93FF92C92FDD2783
:102FE00088232AF02197660F771F881FDAF720E0E1
:102FF00030E040E85FEB9FE3883920F0803E30F01E
:1030000021968F770FDDECE0F1E003C00BDDE9E303
:10301000F1E073DF8B01BE01EC01FB2E6F577109EC
:103020007595771F880B990BFCDD28E132E741E3AA
:103030005FE38FDEAF2D9801AE01FF900F911F91DE
:10304000CF91DF9100DD3FCEFA01DC01AA0FBB1F5B
:103050009B01AC01BF5728F422273327442750781F
:103060001FC0B75188F4AB2F00244695379527959C
:10307000011CA395D2F3002069F0220F331F441FD7
:10308000B395DAF30DD0CDCC61307105A0E88A0795
:10309000B94630F49B01AC016627772788279078E2
:1030A000309621F0208331834283538308959F3FDC
:1030B00031F0915020F4879577956795B795880FF3
:1030C000911D9695879597F90895AA1BBB1B51E111
:1030D00007C0AA1FBB1FA617B70710F0A61BB70B88
:1030E000881F991F5A95A9F780959095BC01CD012D
:1030F000089597FB092E07260AD077FD04D0E5DF57
:1031000006D000201AF4709561957F4F0895F6F768
:0C311000909581959F4F0895F894FFCF93
:10311C000B0013005B0063000900080014005A0048
:06312C0003000200010097
:00000001FF
