:100000000C94B3000C94A1030C94D4000C94D40071
:100010000C94D4000C947C030C9457030C94D400DF
:100020000C94D4000C94D4000C94D4000C94D40000
:100030000C94D4000C94D4000C94D4000C94D400F0
:100040000C94D4000C94D4000C94D4000C94D400E0
:100050000C94D4000C94D4000C94D4000C94D400D0
:100060000C94D4000C9468040C94D4000C94D40028
:100070000C94D4000C94D4000C94D4000C94D400B0
:100080000C94D4000C94D4000C94D4000C94D400A0
:100090000C94D4000C94D4000C94D4000C94D40090
:1000A0000C94D4000C94D4000C94D4000C94D40080
:1000B0000C94D4000C94D4000C94D4000C94D40070
:1000C0000C94D4000C94D4000C94D4000C94D40060
:1000D0000C94D4000C94D4000C94D4000C94D40050
:1000E0000C94D40007634236B79BD8A71A396856D8
:1000F00018AEBAAB558C1D3CB7CC5763BD6DEDFD4A
:10010000753EF6177231BF000000803F0800000006
:10011000BE922449123EABAAAA2ABECDCCCC4C3EFC
:1001200000000080BEABAAAAAA3E00000000BF00EB
:100130000000803F0000000000084178D3BB4387E7
:10014000D1133D190E3CC3BD4282AD2B3E68EC82FB
:1001500076BED98FE1A93E4C80EFFFBE01C4FF7F80
:100160003F000000000011241FBECFEFD1E2DEBF30
:10017000CDBF00E00CBF12E0A0E0B2E0E0E7FBE39F
:1001800000E00BBF02C007900D92AE36B107D9F761
:1001900017E0AEE6B2E001C01D92A63EB107E1F75E
:1001A0000E943A190C94B61D0C94000086E69EE05D
:1001B0000197F1F700004098419880E388B9429A8E
:1001C000EFEFF7E43197F1F700C000004298E6E660
:1001D000FEE03197F1F700004098419888B9429AC3
:1001E000EFEFF7E43197F1F700C000004298E6E640
:1001F000FEE03197F1F700004098419888B9429AA3
:100200008FEF97E40197F1F700C000004298E6E60F
:10021000FEE03197F1F700004098419880E288B9FC
:10022000429A8FEF97E40197F1F700C000004298DF
:10023000089598B19F7098B998B1282F207F922B7C
:1002400098B940984198429AEFEFF7E43197F1F767
:1002500000C00000429898B19F7098B998B18295FB
:10026000807F892B88B940984198429A8FEF97E414
:100270000197F1F700C00000429808950E94D6004F
:1002800086E69EE00197F1F7000088E20E941901DE
:1002900081E00E94190186E00E9419018EE00E940F
:1002A000190180E80E941901089598B19F7098B9CA
:1002B00098B1282F207F922B98B9409A4198429A62
:1002C000EFEFF7E43197F1F700C00000429898B1E2
:1002D0009F7098B998B18295807F892B88B9409A90
:1002E0004198429A8FEF97E40197F1F700C0000020
:1002F0004298089580E80E9419010895CF93DF93F2
:10030000EC018881882331F021960E945501899162
:100310008823D9F7DF91CF910895823079F0833027
:1003200018F48130C9F405C0833069F08430A1F439
:100330000FC0862F81580E9419010895862F81547D
:100340000E9419010895862F8D560E941901089563
:10035000862F8D520E94190108950F931F93CF93FA
:10036000DF938A01E901882311F0662319F40E94C2
:100370007A0102C00E948D01C530D10571F4C80117
:1003800060E177E20E948F1DCB01C0969093BC077D
:100390008093BB070E94550103C0C430D105B9F456
:1003A000C80168EE73E00E948F1DCB017093D407E3
:1003B0006093D3076AE070E00E948F1DC09690930F
:1003C000E5078093E4070E94550181E001C080E0C9
:1003D000C330D10511F08130B1F4C80164E670E09A
:1003E0000E948F1DCB017093D4076093D3076AE0FE
:1003F00070E00E948F1DC0969093E1078093E00704
:100400000E94550181E0C230D10511F08130B1F474
:100410002AE030E0C801B9010E948F1DCB01709322
:10042000D4076093D307B9010E948F1DC0969093A3
:10043000DF078093DE070E94550181E0C130D105BE
:1004400011F0813061F4C8016AE070E00E948F1DF4
:10045000C0969093E3078093E2070E945501C6304F
:10046000D1051CF085E40E945501DF91CF911F91C9
:100470000F910895E4E0F1E080818FEF8083E5E063
:10048000F1E080811082089580E480930501089551
:1004900080E280930501089580E18093050108952D
:1004A000109205010895259A2D9A0895269A2E9A5C
:1004B0000895E1E8F0E010828CEF8093850081E000
:1004C0008093840093E0909389008FEF809388005D
:1004D00090938B0080938A0090938D0080938C0082
:1004E00090938700809386008BEA8093800010921F
:1004F00082008CE08083089510928900682F70E05C
:1005000080E090E00E94391B2BE734E14EEE5FE380
:100510000E94A01A20E030E04CE052E40E943C1A15
:100520000E940D1B60938800089510928B00682F25
:1005300070E080E090E00E94391B2BE734E14EEE42
:100540005FE30E94A01A20E030E04CE052E40E94F9
:100550003C1A0E940D1B60938A00089583E08093EB
:1005600089008FEF80938800089583E080938B004B
:100570008FEF80938A000895CF93DF93EC018091F1
:10058000610290916202C817D907ACF40E947C0204
:100590008091610290916202019790936202809330
:1005A0006102EFEFF7E43197F1F700C000008C171C
:1005B0009D0761F717C08C179D07A4F40E947C0269
:1005C0008091610290916202019690936202809301
:1005D0006102EFEFF7E43197F1F700C000008C17EC
:1005E0009D0761F7DF91CF910895CF93DF93EC01E1
:1005F0008091D6029091D702C817D907ACF40E9417
:1006000095028091D6029091D70201979093D702DC
:100610008093D602EFEFF7E43197F1F700C00000C6
:100620008C179D0761F717C08C179D07A4F40E94D3
:1006300095028091D6029091D70201969093D702AD
:100640008093D602EFEFF7E43197F1F700C0000096
:100650008C179D0761F7DF91CF91089581B18F606D
:1006600081B982B1807F82B9EAE0F1E0808188615E
:100670008083EBE0F1E080818861808308956C984D
:10068000749A08956D98759A0895F894EAE6F0E0E2
:10069000808182608083EC9A78940895F894EAE6E9
:1006A000F0E0808188608083ED9A789408951F92AD
:1006B0000F920FB60F9211248F939F93AF93BF9316
:1006C0008091E1029091E202A091E302B091E402F4
:1006D0000196A11DB11D8093E1029093E202A093C7
:1006E000E302B093E402BF91AF919F918F910F907D
:1006F0000FBE0F901F9018951F920F920FB60F927A
:1007000011248F939F93AF93BF938091E5029091B3
:10071000E602A091E702B091E8020196A11DB11D89
:100720008093E5029093E602A093E702B093E8027B
:10073000BF91AF919F918F910F900FBE0F901F901F
:1007400018951F920F920FB60F9211248F939F93BB
:10075000AF93BF938091D8029091D902A091DA0211
:10076000B091DB020196A11DB11D8093D802909338
:10077000D902A093DA02B093DB02BF91AF919F91AF
:100780008F910F900FBE0F901F9018952091EB0244
:100790003091EC028091650290916602281739072A
:1007A00061F58091BD079091BE07009751F0EFEB86
:1007B000F7E081E090E02191319121153105C1F4FC
:1007C00002C080E090E02091ED023091EE02FC0149
:1007D000EE0FFF1FE354F84F318320838091D10740
:1007E0009091D20701969093D2078093D1070895F4
:1007F00001968A309105F9F608952091EB02309127
:10080000EC0280916302909164022817390759F530
:100810008091A1079091A207009751F0E3EAF7E0D9
:1008200081E090E02191319121153105C1F402C0A0
:1008300080E090E02091ED023091EE02FC01EE0F9D
:10084000FF1FEF55F84F318320838091B5079091BA
:10085000B60701969093B6078093B5070895019661
:100860008A309105F9F6089580E090E02FEE32E0AD
:10087000FC01EE0FFF1FE20FF31F118210820196A1
:1008800082339105A9F70895809153039091540301
:1008900018161906E4F420E030E060E772E0AFEEED
:1008A000B2E0C901880F991FFB01E80FF91F4081D1
:1008B00051818A0F9B1FFC01518340832F5F3F4F63
:1008C00080915303909154032817390754F30895E6
:1008D0001F920F920FB60F920BB60F9211242F9307
:1008E0003F934F935F936F937F938F939F93AF93B8
:1008F000BF93EF93FF932091C6008FEF97E401978A
:10090000F1F700C000008091D4029091D50230E050
:10091000FC01EE0FFF1FE059FD4F31832083208142
:10092000318127303105E1F481E090E09093960722
:10093000809395074091E9025091EA029A01220FB3
:10094000331FFA01EE0FFF1FEE0FFF1FEE0FFF1F09
:100950002E0F3F1FF901EB5AFC4F91878087EBC0A8
:10096000FC01EE0FFF1FE059FD4F20813181253042
:10097000310569F481E090E09093BA078093B9075C
:100980008FEF9FEF9093D5028093D402D4C0FC01E7
:10099000EE0FFF1FE059FD4F2081318124303105DA
:1009A000E9F48FEF9FEF9093D5028093D40280916A
:1009B0007002909171029093EC028093EB0280910F
:1009C0007202909173029093EE028093ED0281E0A7
:1009D00090E090936F0280936E02ADC0FC01EE0F29
:1009E000FF1FE059FD4F208131812230310509F090
:1009F00049C08091530390915403181619069CF531
:100A000020917002309171028091EF029091F0027A
:100A100028173907A9F020E030E0A0E7B2E06FEE38
:100A200072E018C04D915C911197F901EE0FFF1F14
:100A3000E60FF71F808191814817590759F402C0CA
:100A400020E030E0F901EE0FFF1FE151FD4F118270
:100A5000108209C02F5F3F4F809153039091540340
:100A600028173907FCF280917202909173029093DB
:100A7000EA028093E9028FEF9FEF9093D502809373
:100A8000D40259C0FC01EE0FFF1FE059FD4F208139
:100A900031812330310599F5809170029091710276
:100AA000FC01EE0FFF1F880F991F880F991F880FF9
:100AB000991FE80FF91FEB5AFC4F81E090E09187F6
:100AC0008087E0919B07F0919C0780917002909144
:100AD0007102EE0FFF1FE35CF84F918380838091DA
:100AE0009B0790919C07019690939C0780939B078E
:100AF0008FEF9FEF9093D5028093D4021CC0FC012E
:100B0000EE0FFF1FE059FD4F8081918181309105EB
:100B100091F40E9434048091D4029091D502909374
:100B20005403809353030E9444048FEF9FEF9093EC
:100B3000D5028093D4028091D4029091D50201967F
:100B40009093D5028093D402FF91EF91BF91AF9122
:100B50009F918F917F916F915F914F913F912F91D5
:100B60000F900BBE0F900FBE0F901F90189592B173
:100B7000907F8F70982B92B9089586E00E94B705F8
:100B8000089589E00E94B705089585E00E94B705A1
:100B900008958AE00E94B705089580E00E94B70595
:100BA00008950F931F93682F70E080E090E00E94FB
:100BB000391B2FEE39EC43E95FE30E942A1CB62F64
:100BC000A72F382F292F60E070E080E89FE3422FA5
:100BD0000B2F1A2F232F342FA90198010E94A01A3E
:100BE0002AE939EF4EE255E40E94C71B20E030E0CD
:100BF00040E251E40E94C71B0E94081B882777FD32
:100C00008095982F0E943B1B0E94081B862F972FD0
:100C100023E08132920710F080E293E01F910F9160
:100C200008950F931F93CF93BC0180E090E00E9442
:100C3000391B28E431EE42E850E40E94A01A0E94D9
:100C40000D1BDC01CB01A0E0B0E01092E10210929C
:100C5000E2021092E3021092E4021092E502109276
:100C6000E6021092E7021092E802F1E0C0E0409143
:100C7000E1025091E2026091E3027091E40200917E
:100C8000E5021091E6022091E7023091E802EF2F91
:100C9000481759076A077B0708F4EC2FEE2349F43D
:100CA0004F2F081719072A073B0708F44C2F442336
:100CB000F1F20E94CD05CF911F910F910895BC01D3
:100CC00080E090E00E94391B25EE30ED4AEA50E4C6
:100CD0000E94A01A0E940D1B462F572F682F792FB4
:100CE0001092E1021092E2021092E3021092E402EA
:100CF0008091E1029091E202A091E302B091E402BE
:100D0000481759076A077B0798F70895CF93DF9331
:100D1000EC010E94BD05CE010E945F06DF91CF91DC
:100D20000895CF93DF93EC010E94C105CE010E948C
:100D30005F06DF91CF910895CF93DF93EC010E947E
:100D4000C505CE010E941106DF91CF910895CF9382
:100D5000DF93EC010E94C905CE010E941106DF91CC
:100D6000CF91089587B1876F87B988B1807888B9A6
:100D70000895E1ECF0E010821092C00086E08093CC
:100D8000C2008FE58093C4001092C50088E980837B
:100D9000089510BA11BA109207011092080108952F
:100DA0003B9A439808950E942E030E943F030E949D
:100DB00042030E94D0060E94B2060E94C9060E9409
:100DC0002E030E9453020E9456020E943A02089586
:100DD000E1E2F1E010828FEF8093250191E09093A2
:100DE0002401109229018093280110922B018093F5
:100DF0002A0110922D0180932C0189EA8093200111
:100E00008BE080830895EAE7F0E0108210927B0087
:100E100080E280937C0080E880BF86E8808308952C
:100E2000883018F098E090937B0087708062809300
:100E30007C00EAE7F0E0808180648083808184FF29
:100E4000FDCF80917900EAE7F0E090819061908396
:100E500010927B000895CF93DF93D82FC62F842F55
:100E60000E941007482F8093DD078D2F6C2F50E0D4
:100E700023E030E00E94AD01DF91CF9108950F9300
:100E80001F93CF93DF9320919D0730919E07C90157
:100E90006AE070E00E94A31D80FFC7C0C9016AE03C
:100EA00070E00E94A31D60FFC0C08BE00E9410078D
:100EB0000E94D105EC0182E061E0AE0123E030E068
:100EC0000E94AD012197C53ED10508F0AEC081E07A
:100ED00090E0909398078093970782E061E04BE061
:100EE0000E942B078091DC029091DD0220919F07E8
:100EF0003091A0078217930739F400919D07109154
:100F00009E07065F1F4F29C02091690230916A0237
:100F10008217930739F400919D0710919E070A509C
:100F200010401BC020916B0230916C028217930716
:100F300039F400919D0710919E070F5F1F4F0DC060
:100F400020916702309168028217930731F4009173
:100F50009D0710919E07015010408091E9029091E9
:100F6000EA020817190709F460C080913D079091C3
:100F70003E07009721F180913D0790913E07B8010F
:100F80008017910709F451C020E030E04DE357E0AD
:100F90000BC0F901EE0FFF1FE40FF51F8081918157
:100FA0006817790709F441C02F5F3F4FF901EE0F31
:100FB000FF1FE40FF51F80819181009751F7E091A9
:100FC0009B07F0919C07EE0FFF1FE35CF84F118326
:100FD0000083F801EE0FFF1FC801880F991F880FCB
:100FE000991F880F991FE80FF91FEB5AFC4F81E0FA
:100FF00090E091878087E6ECF0E000838FEF97E444
:101000000197F1F700C0000083E080838FEF97E441
:101010000197F1F700C0000080919B0790919C0719
:10102000019690939C0780939B07DF91CF911F912E
:101030000F9108958093280160932A010895F894F0
:101040000E94D3060E9403070E94E8060E945902EC
:101050000E94B9060E9445030E944E0378940895A9
:1010600086B1886088B9089586B1877F88B9089568
:101070009C016AE070E00E94A31DE82FF92F80FD1B
:1010800007C0C9016AE070E00E94A31D60FF0CC0A8
:10109000309769F02B50304081E090E029353105E0
:1010A00040F080E090E0089580E090E0089580E0D6
:1010B00090E00895CF93DF93EC018FEF6FEF0E94E4
:1010C0001A08CE010E949C0682E00E9410078093BD
:1010D000DF028634A0F486E966E90E941A080E94BD
:1010E000C50582E00E9410078093DF02863438F441
:1010F00082E00E9410078093DF028634C8F382E307
:1011000093EBA2E081509040A040E1F700C000C006
:101110000E94CD05DF91CF910895CF93DF93EC012D
:101120008CEF6FEF0E941A08CE010E94A70682E0A2
:101130000E9410078093DF028634A0F486E966E9F6
:101140000E941A080E94C90582E00E94100780933D
:10115000DF02863438F482E00E9410078093DF02B9
:101160008634C8F382E393EBA2E081509040A04024
:10117000E1F700C000C00E94CD05DF91CF91089536
:101180009C016AE070E00E94A31D009759F02B308B
:1011900031055CF081E090E02436310544F080E0D8
:1011A00090E0089580E090E0089580E090E0089558
:1011B0008F929F92AF92BF92CF92DF92EF92FF9267
:1011C0000F931F93CF93DF930F2EF5E1EF2EFF24A4
:1011D000F02DCC24DD24C3940F2EFAE0AF2EBB24D7
:1011E000F02D0CE010E00F2EF5E58F2EF3E09F2E92
:1011F000F02DE8012197CE010E943808009709F4EC
:10120000B1C0C7010E943808009791F0CE01880F45
:10121000991F9E01220F331F220F331F220F331FEE
:10122000820F931F880D991DFC01F182E08211C08D
:10123000CE01880F991F9E01220F331F220F331FEB
:10124000220F331F820F931F880D991DFC011182FD
:101250001082C8010E943808009791F0CE01880FD3
:10126000991F9E01220F331F220F331F220F331F9E
:10127000820F931F880D991DFC011383028311C0F7
:10128000CE01880F991F9E01220F331F220F331F9B
:10129000220F331F820F931F880D991DFC011382AB
:1012A0001282C6010E943808009791F0CE01880F83
:1012B000991F9E01220F331F220F331F220F331F4E
:1012C000820F931F880D991DFC01D582C48211C025
:1012D000CE01880F991F9E01220F331F220F331F4B
:1012E000220F331F820F931F880D991DFC01158259
:1012F0001482C5010E943808009791F0CE01880F32
:10130000991F9E01220F331F220F331F220F331FFD
:10131000820F931F880D991DFC01B782A68211C010
:10132000CE01880F991F9E01220F331F220F331FFA
:10133000220F331F820F931F880D991DFC01178206
:1013400016829E01220F331FCE01880F991F880F2E
:10135000991F880F991F820F931F880D991DFC01FB
:10136000118610860F5F1F4F0894A11CB11C0894B2
:10137000C11CD11C0894E11CF11C0536110509F0B3
:1013800038CFDF91CF911F910F91FF90EF90DF90B9
:10139000CF90BF90AF909F908F90089580919D07C0
:1013A00090919E076AE070E00E94A31DAC018091BD
:1013B000DC029091DD0220919F073091A0078217F7
:1013C0009307A1F46F5F7F4FCB01880F991F660FC2
:1013D000771F660F771F660F771F860F971F480FBF
:1013E000591F50939E0740939D07089520916702CF
:1013F0003091680282179307A1F4CB01880F991FDF
:10140000660F771F660F771F660F771F860F971F70
:1014100041505040840F951F90939E0780939D07E5
:10142000089520916B0230916C0282179307A1F40A
:10143000CB01880F991F660F771F660F771F660F06
:10144000771F860F971F4F5F5F4F840F951F9093F5
:101450009E0780939D0708952091690230916A024A
:101460008217930799F461507040CB01880F991F40
:10147000660F771F660F771F660F771F860F971F00
:10148000480F591F50939E0740939D070895EF9270
:10149000FF920F931F93CF93DF932DE837E0AC01BA
:1014A000465F5F4F50938E0740938D07AC014F5FAF
:1014B0005F4F5093900740938F07AC014A505040C4
:1014C00050939207409391070197909394078093CC
:1014D0009307D901B901685F7F4FEDE3F7E000E0C2
:1014E00010E023C0A8017D01CA01880F991F8E0F4B
:1014F0009F1FEC01888199812D913C911197821752
:10150000930719F4E701198218824F5F5F4FCA01F0
:10151000880F991F8E0F9F1FEC018881998100977A
:1015200019F71296A617B70729F0808191810097C5
:10153000C9F6F7CFDF91CF911F910F91FF90EF90F8
:101540000895CF93DF93A82FB92FE62FF72FC0E090
:10155000D0E067EE73E020E030E04D915D914617FA
:10156000570734F480819181009711F4E901BA01A1
:101570002F5F3F4F32962436310579F78C2F9D2F00
:10158000DF91CF9108952F923F924F925F926F9289
:101590007F928F929F92AF92BF92CF92DF92EF9203
:1015A000FF920F931F93CF93DF93CDB7DEB7C8524F
:1015B000D3400FB6F894DEBF0FBECDBFCD5DDC4F7C
:1015C00099838883C352D3407B01CB5DDC4F598321
:1015D0004883C552D340FE01319688ECDF011D924D
:1015E0008A95E9F7CB5DDC4F08811981C552D3405C
:1015F0006017710739F5C75ADD4F79836883C9557C
:10160000D240C55ADD4F79836883CB55D240CD5D3A
:10161000DC4FA881B981C352D340FE01E75AFD4F88
:101620008AEC01900D928150E1F7CD5DDC4FE881AD
:10163000F981C352D340E853FF4F81E090E091839A
:101640008083B6C1FE01EF56FE4FDE01A753BF4FA8
:10165000CE01875A9D4F2FEF3FEF47EE53E0219386
:1016600031934D935D93E817F907C9F7C701880FC8
:10167000991FFE01E80FF91F21E030E0328321833A
:10168000E9ECF0E0EC0FFD1FE80FF91F118210826A
:1016900021E931E02C0F3D1F820F931FDC011196D1
:1016A000FC92EE9220E030E0C701880F991F880F6E
:1016B000991FAC014E0D5F1D65E573E0CC24DD2460
:1016C000C394CA01820F931F880F991F860F971F1B
:1016D000FC0180819181009719F1CA01820F931F4B
:1016E000880F991FFB01E80FF91F80819181880FF6
:1016F000991F09EC10E00C0F1D1F800F911FDC01DA
:10170000CD92DC9280819181880F991FE1E9F1E00F
:10171000EC0FFD1F8E0F9F1FDC011196FC92EE92C5
:101720002F5F3F4F2430310561F60F2EF4EFCF2E9F
:10173000F1E0DF2EF02DCB5DDC4F88819981C55221
:10174000D340880F991F6624772463946C0E7D1E06
:10175000680E791E4424552443942224332405E53D
:1017600013E04701C4C0CE0187539F4FBE016F5F96
:101770007F4F0E94A10ADC01880F991FE1E0F0E091
:10178000EC0FFD1F8E0F9F1FFC0151824082A101B3
:10179000CD01880F991F880F991FFC01EA0FFB1FCD
:1017A000CD01880F991F0F2EF9ECEF2EFF24F02D9D
:1017B000EC0EFD1EE80EF91E9D01220F331F220FB5
:1017C000331F220F331F820F931F800F911FAA24F4
:1017D000BB246894A3F8A80EB91EC7017D01C95D9A
:1017E000DC4F99838883C752D340CF01840F951F64
:1017F000880F991F800F911FDC018D919C9111978B
:10180000009709F448C02D913C91C95DDC4FA88137
:10181000B981C752D3408D919C91BC016F5F7F4FBE
:10182000C901880F991F29EC30E02C0F3D1F820F52
:10183000931FDC018D919C911197681779075CF5D6
:10184000D5018D919C911197009729F5CF01840FB7
:10185000951F880F991F9801280F391FD9018D9165
:101860009C91880F991FA9ECB0E0AC0FBD1F8A0FA7
:101870009B1FDC016D937C93D9018D919C91880F06
:10188000991F21E931E02C0F3D1F820F931FDC01CE
:101890001196FC92EE924F5F5F4F4430510509F074
:1018A000A4CF0894C108D108C114D10401F581E086
:1018B0000E94190180E092E00E947E01CD5DDC4F24
:1018C000A881B981C352D340FE01E75AFD4F8AEC8B
:1018D00001900D928150E1F7CD5DDC4FE881F981F7
:1018E000C352D340E853FF4F1182108261C0F3010D
:1018F000808191818130910509F035CF7401CB5DF4
:10190000DC4F08811981C552D340C75ADD4F198376
:101910000883C955D240F801EE0FFF1F21E931E0DD
:101920002C0F3D1FE20FF31F8081918188169906CD
:10193000D1F0FE01E55AFD4F21E030E0A90181938D
:101940009193880F991F61E971E06C0F7D1F860FDD
:10195000971FDC018D919C9111972F5F3F4FE816E7
:10196000F90661F702C040E050E04F5F5F4FFA01B7
:10197000EE0FFF1F09E512E00C0F1D1FE00FF11F16
:10198000F182E082CD5DDC4FA881B981C352D340A2
:10199000F8018AEC01900D928150E1F7CD5DDC4FAA
:1019A000E881F981C352D340E853FF4F518340830C
:1019B000CD5DDC4F88819981C352D340C85DDC4F37
:1019C0000FB6F894DEBF0FBECDBFDF91CF911F9150
:1019D0000F91FF90EF90DF90CF90BF90AF909F90CE
:1019E0008F907F906F905F904F903F902F900895D1
:1019F0002F923F924F925F926F927F928F929F921F
:101A0000AF92BF92CF92DF92EF92FF920F931F930C
:101A1000CF93DF93CDB7DEB7C659D1400FB6F89458
:101A2000DEBF0FBECDBF1C010F2EFDE88F2EF7E0ED
:101A30009F2EF02D66247724689463F8680C791C37
:101A400007EE13E002C0052D142DF40141915191D0
:101A50004F014115510509F4A0C060919D07709197
:101A60009E07CE0101960E94C30AC753DF4FA8808C
:101A7000B980C95CD040A016B1066CF4FE01E553F4
:101A8000FF4FDE0111968AEC0D9001928150E1F733
:101A90005A2C4B2C82C0A016B10609F07EC0F2E091
:101AA000AF16B1040CF479C0FE013196DE01A553E6
:101AB000BF4F01E010E0EE24FF24CC24DD24CB5600
:101AC000DE4FF983E883C559D140CB56DE4F68819C
:101AD0007981C559D140FB01428153810F5F1F4F6E
:101AE000808191819C01241B350B1AF4309521953E
:101AF0003F4FFB0184819581BA01681B790BCB01B3
:101B000099231CF4909581959F4F2817390719F058
:101B10000894C11CD11CBD0112964D915C91139784
:101B20008D919C9111979C01241B350B1AF43095D3
:101B300021953F4FFB0184819581BA01681B790B88
:101B4000CB0199231CF4909581959F4F2817390755
:101B500019F00894E11CF11CCB56DE4F8881998165
:101B6000C559D1400296CB56DE4F99838883C5591B
:101B7000D14012960A151B0509F0A7CFCE14DF0439
:101B800064F4FE01E553FF4FDE0111968AEC0D90DF
:101B900001928150E1F75A2C4B2C8614970409F0DE
:101BA00052CFD101FE01E553FF4F8AEC01900D9217
:101BB0008150E1F7F101E853FF4F50824182C101AA
:101BC000CA56DE4F0FB6F894DEBF0FBECDBFDF9111
:101BD000CF911F910F91FF90EF90DF90CF90BF902A
:101BE000AF909F908F907F906F905F904F903F90BD
:101BF0002F900895CF93DF9381E00E9419018CE02C
:101C000092E00E947E0183E00E9410078093E00230
:101C100082E00E9410078093DF0281E00E9410079B
:101C20008093DE024091E0029091DF02292F30E0A4
:101C3000240F311D280F311D233831050CF45FC0EE
:101C400080919D0790919E07009799F48BE390E017
:101C500090939E0780939D07809167029091680200
:101C60009093DD028093DC0287E390E00E94860679
:101C700068C00E94CE0980919D07E6ECF0E0808369
:101C80008FEF97E40197F1F700C0000082E08083B6
:101C9000AFEFB7E41197F1F700C000000E94CD0547
:101CA0000E9430088FEF9FE3A2E081509040A04057
:101CB000E1F700C000000E943408C0919D07D09158
:101CC0009E078BEF6FEF0E941A080E943F07CE011C
:101CD0006AE070E00E94A31D80FF0CC0CE016AE0A4
:101CE00070E00E94A31D60FF05C086E490E00E94A2
:101CF000860627C08FE090E00E94860622C09B30B7
:101D000038F08FEF6FEF0E941A080E94BD057BCF5D
:101D10004B3038F086E96FEF0E941A080E94BD052B
:101D200072CF8B3038F08FEF66E90E941A080E945C
:101D3000BD0569CF8FEF6FEF0E941A080E94BD05A5
:101D400062CFDF91CF91089520916B0230916C02A8
:101D50002817390749F48FEF6FEF0E941A088CE3B8
:101D600090E00E945A081FC02091670230916802DB
:101D70002817390749F48FEF6FEF0E941A088CE398
:101D800090E00E948D080FC02091690230916A0294
:101D90002817390741F48FEF6FEF0E941A0880EA85
:101DA00090E00E945A0880919F079091A00790931D
:101DB000DD028093DC02089520916B0230916C0269
:101DC0002817390749F48FEF6FEF0E941A088CE348
:101DD00090E00E948D081FC0209167023091680238
:101DE0002817390749F48FEF6FEF0E941A088CE328
:101DF00090E00E945A080FC020919F073091A007E1
:101E00002817390741F48FEF6FEF0E941A0880EA14
:101E100090E00E948D088091690290916A029093EF
:101E2000DD028093DC02089520919F073091A00786
:101E30002817390749F48FEF6FEF0E941A088CE3D7
:101E400090E00E945A081FC02091690230916A02F6
:101E50002817390749F48FEF6FEF0E941A088CE3B7
:101E600090E00E948D080FC020916B0230916C02AF
:101E70002817390741F48FEF6FEF0E941A0880EAA4
:101E800090E00E948D088091670290916802909383
:101E9000DD028093DC02089520919F073091A00716
:101EA0008217930749F48FEF6FEF0E941A088CE3B3
:101EB00090E00E948D081FC02091690230916A0253
:101EC0008217930749F48FEF6FEF0E941A088CE393
:101ED00090E00E945A080FC020916702309168027A
:101EE0008217930741F48FEF6FEF0E941A0880EA80
:101EF00090E00E948D0880916B0290916C0290930B
:101F0000DD028093DC020895CF92DF92EF92FF9280
:101F10000F931F93CF93DF937C016B0182E065E009
:101F2000A70122E030E00E94AD0182E068E0A60156
:101F300022E030E00E94AD01EC14FD0409F463C01E
:101F40002AE030E0C701B9010E94A31D8B01C60140
:101F5000B9010E94A31DEB0106171707E9F06017EE
:101F6000710764F48091DC029091DD020E94DC0E26
:101F700001501040C017D107A9F70EC00617170768
:101F80005CF48091DC029091DD020E94A40E0F5F50
:101F90001F4FC017D107A9F72AE030E0C701B901E8
:101FA0000E94A31D8C01C601B9010E94A31DEC0172
:101FB00008171907E9F08017910764F48091DC0293
:101FC0009091DD020E94140F01501040C017D107FC
:101FD000A9F70EC0081719075CF48091DC029091F4
:101FE000DD020E944C0F0F5F1F4FC017D107A9F7EA
:101FF0000E943F0780919707909198078130910543
:1020000011F00E94FA0DDF91CF911F910F91FF9077
:10201000EF90DF90CF900895BC0180915303909191
:102020005403181619060CF58091EF029091F002F6
:1020300086179707E9F080E090E04FEE52E00AC083
:10204000FC01EE0FFF1FE40FF51F208131812617E1
:10205000370789F00196209153033091540382177A
:10206000930774F381E090E0089581E090E0089593
:1020700080E090E0089580E090E00895AC018091C8
:10208000EF029091F00284179507A9F081E090E0AB
:102090006FEE72E0FC01EE0FFF1FE60FF71F2081CD
:1020A00031812417350751F001968233910591F75C
:1020B00080E090E0089581E090E0089581E090E074
:1020C00008952F923F924F925F926F927F928F92DC
:1020D0009F92AF92BF92CF92DF92EF92FF920F93B7
:1020E0001F93CF93DF93CDB7DEB7C652D3400FB661
:1020F000F894DEBF0FBECDBFCD5DDC4F99838883E2
:10210000C352D340FE01319688ECDF011D928A95BF
:10211000E9F760909D0770909E07FE01EF56FE4F15
:10212000DE01A753BF4FCE01875A9D4F2FEF3FEFE0
:1021300047EE53E0219331934D935D93E817F907F0
:10214000C9F7C301880F991FFE01E80FF91F21E0AD
:1021500030E032832183E9ECF0E0EC0FFD1FE80F63
:10216000F91F11821082E1E9F1E0EC0FFD1F8E0FE3
:102170009F1FDC0111967C926E9220E030E0C3013B
:10218000880F991F880F991FAC01460D571D65E5F3
:1021900073E0EE24FF24E394CA01820F931F880F9B
:1021A000991F860F971FFC0180819181009719F17B
:1021B000CA01820F931F880F991FFB01E80FF91FB7
:1021C00080819181880F991F09EC10E00C0F1D1F71
:1021D000800F911FDC01ED92FC9280819181880F2C
:1021E000991FE1E9F1E0EC0FFD1F8E0F9F1FDC014D
:1021F00011967C926E922F5F3F4F2430310561F62D
:102200000F2EF4EFAF2EF1E0BF2EF02D4424552415
:102210004394222433240F2EF5E5EF2EF3E0FF2E16
:10222000F02DCE0187539F4FBE016F5F7F4F0E94FD
:10223000A10A8C01880F991FE1E0F0E0EC0FFD1F6F
:102240008E0F9F1FDC014D925C92A101C801880F87
:10225000991F880F991FFC01E00FF11FC801880F1B
:10226000991F0F2EF9ECCF2EDD24F02DCC0EDD1EA4
:10227000C80ED91E9801220F331F220F331F220FC1
:10228000331F820F931F8E0D9F1D882499246894FD
:1022900083F8880E991ECF01840F951F880F991F10
:1022A0008E0D9F1DDC018D919C911197009709F473
:1022B0004EC02D913C91D6018D919C91BC016F5FD8
:1022C0007F4FC901880F991F29EC30E02C0F3D1F6B
:1022D000820F931FDC018D919C91119768177907EC
:1022E000B4F5D4018D919C911197009781F5CF01A0
:1022F000840F951F880F991F9701280F391FCB5DF9
:10230000DC4F39832883C552D340D9018D919C91EC
:10231000880F991F29EC30E02C0F3D1F820F931F6F
:10232000DC016D937C93CB5DDC4FA881B981C552F4
:10233000D3408D919C91880F991F21E931E02C0F9A
:102340003D1F820F931FDC0111961C930E934F5F6C
:102350005F4F4430510509F09ECFC8010E940C1018
:10236000009751F1C801880F991F9801220F331F60
:10237000220F331F220F331F820F931F8E0D9F1DBD
:10238000FC01808591850097B9F4C75ADD4F198308
:102390000883C955D240F801EE0FFF1F01E911E093
:1023A0000C0F1D1FE00FF11F8081918168167906C7
:1023B00051F540E050E040C00894A108B108A114D4
:1023C000B10409F02ECF81E00E94190180E092E073
:1023D0000E947E01CD5DDC4FA881B981C352D340FC
:1023E000FE01E75AFD4F8AEC01900D928150E1F712
:1023F000CD5DDC4FE881F981C352D340E853FF4FF4
:10240000118210823CC0FE01E55AFD4F21E030E010
:10241000A90181939193880F991F61E971E06C0F75
:102420007D1F860F971FDC018D919C9111972F5F67
:102430003F4F6816790661F74F5F5F4FFA01EE0F65
:10244000FF1F09E512E00C0F1D1FE00FF11F718245
:102450006082CD5DDC4FA881B981C352D340F801C1
:102460008AEC01900D928150E1F7CD5DDC4FE8815F
:10247000F981C352D340E853FF4F51834083CD5D70
:10248000DC4F88819981C352D340CA5DDC4F0FB6BF
:10249000F894DEBF0FBECDBFDF91CF911F910F919A
:1024A000FF90EF90DF90CF90BF90AF909F908F9074
:1024B0007F906F905F904F903F902F9008952F9254
:1024C0003F924F925F926F927F928F929F92AF92C4
:1024D000BF92CF92DF92EF92FF920F931F93CF9311
:1024E000DF93CDB7DEB7CA5CD0400FB6F894DEBF3D
:1024F0000FBECDBF882499245E010894A11CB11C95
:102500000F2EF5E54F2EF3E05F2EF02D222433241D
:10251000689421F80F2EFFEEEF2EF2E0FF2EF02D43
:10252000C5010E9461108091990790919A07880FC8
:10253000991F9C01220F331F220F331F820F931FFD
:10254000840D951DDC0119961C921E92189781141A
:10255000910449F48FEF9FEFA0EE81509040A0408E
:10256000E1F700C000000894811C911C69807A800A
:10257000C753DF4F28813981C95CD040121613063A
:102580000CF059C0C9010197880F991F8A0D9B1D36
:10259000DC016D917C9111978091E9029091EA02A2
:1025A0006817790749F50BC0F801729162918F01A4
:1025B0008091E9029091EA026817790729F58091E4
:1025C000E9029091EA0290939A07809399079C01FF
:1025D000220F331F880F991F880F991F880F991F8B
:1025E000820F931F840D951DE1E0F0E0DC01199648
:1025F000FC93EE9318971FC0C9010197880F991F8C
:102600008501080F191F6501D80112968D919C91C3
:1026100013970E94840F80919707909198078130BB
:10262000910529F4109298071092970704C00C1591
:102630001D0509F0B9CF40919D0750919E0720E0FC
:1026400030E0B101C901880F991F8E0D9F1DFC015B
:10265000808191818417950711F46F5F7F4F2F5F01
:102660003F4F2233310571F76230710521F0641656
:10267000750609F055CF0E94CD05C653DF4F0FB642
:10268000F894DEBF0FBECDBFDF91CF911F910F91A8
:10269000FF90EF90DF90CF90BF90AF909F908F9082
:1026A0007F906F905F904F903F902F900895CF92C2
:1026B000DF92EF92FF920F931F93CF93DF93CDB7EB
:1026C000DEB781E00E94190183E192E00E947E0161
:1026D000CC52DF4FC880D980C45DD0401C141D048B
:1026E0000CF05CC07601EE0CFF1C8CE090E08C0FCF
:1026F0009D1FE80EF91EF701129102917F01C8019A
:102700000E943E10009711F10E94CD0580919D0717
:1027100090919E070E943E10009709F43FC006EC7E
:1027200010E087E0F80180838FEF97E40197F1F7DD
:1027300000C000000E945F1288E0F80180838FEFE4
:1027400097E40197F1F700C0000028C0F7018281EB
:102750009381B8010E94840F80916E0290916F0264
:102760008130910531F410926F0210926E020E9436
:10277000C60380919707909198078130910539F4AD
:102780000E94CD05109298071092970707C00894F1
:10279000C108D108C114D10409F0ADCFDF91CF91A8
:1027A0001F910F91FF90EF90DF90CF9008954F927F
:1027B0005F926F927F928F929F92AF92BF92CF92D1
:1027C000DF92EF92FF920F931F93CF93DF93CDB7DA
:1027D000DEB7CA5CD0400FB6F894DEBF0FBECDBFE7
:1027E00081E00E9419018EE192E00E947E018091B9
:1027F000D1079091D207009791F10DEB17E00F2EC2
:10280000F4E1CF2EDD24F02DC00ED11E0F2EF7EEF9
:10281000AF2EF3E0BF2EF02DD8018D919C91119732
:102820000097B9F00E94470ACE0101960E94F80C69
:10283000C753DF4F88819981C95CD0408A159B05B9
:1028400044F4F80180809180609065027090660287
:102850005C010E5F1F4F0C151D05F1F6BBC080918A
:10286000B5079091B607009791F101EA17E00F2E96
:10287000F4E1CF2EDD24F02DC00ED11E0F2EF7EE89
:10288000AF2EF3E0BF2EF02DD8018D919C911197C2
:102890000097B9F00E94470ACE0101960E94F80CF9
:1028A000C753DF4F88819981C95CD0408A159B0549
:1028B00044F4F8018080918060906302709064021B
:1028C0005C010E5F1F4F0C151D05F1F683C01092C1
:1028D000BA071092B9070DEF13E00F2EF1EDEF2EAE
:1028E000F7E0FF2EF02D0F2EF5EBCF2EF7E0DF2EC9
:1028F000F02D0F2EF6ECAF2EBB24F02D0F2EF7E0AF
:102900008F2EF02D0F2EF0E34F2EF2E05F2EF02DE4
:102910006624689463F84CC0D8014D915C9182E0C4
:102920006CE021E030E00E94AD018091950790912C
:1029300096078130910509F443C0F7014081518128
:1029400082E061E022E030E00E94AD01D6014D91CD
:102950005C9182E064E022E030E00E94AD01809171
:102960009D0790919E070E943E10009709F1F50186
:1029700080828FEF97E40197F1F700C0000081E0BB
:102980000E941901C2010E947E010E945F12D501BE
:102990006C92EFEFF7E43197F1F700C000008FEF92
:1029A0009FE7A4E081509040A040E1F700C0000004
:1029B00080916E0290916F028130910509F0ACCF49
:1029C00010926F0210926E020E94C6036624772452
:1029D00088249924682D792D862D972DC653DF4F95
:1029E0000FB6F894DEBF0FBECDBFDF91CF911F9120
:1029F0000F91FF90EF90DF90CF90BF90AF909F909E
:102A00008F907F906F905F904F9008959F92AF92BC
:102A1000BF92CF92DF92EF92FF920F931F93CF93CB
:102A2000DF93CDB7DEB7CA5CD0400FB6F894DEBFF7
:102A30000FBECDBF5C010E94CD0581E00E9419014F
:102A400089E392E00E947E01C5010E94470ACE01FF
:102A500001960E94F80C09811A81C753DF4F488103
:102A60005981C95CD0408091990790919A07880F4D
:102A7000991F9C01220F331F220F331F820F931FB8
:102A8000FC01EB5AFC4F118610864115510589F463
:102A9000CE0101960E94F80C09811A81C753DF4FBD
:102AA00088819981C95CD040009791F3282F892FA4
:102AB00002C0242F852F1A830983C753DF4F288331
:102AC000C95CD040C653DF4F8883CA5CD0402DB765
:102AD0003EB72A5C30400FB6F8943EBF0FBE2DBF04
:102AE000ADB7BEB71196FE0131968AEC01900D92FA
:102AF0008150E1F70E94571380919D0790919E07A6
:102B0000ADB7BEB7A653BF4F0FB6F894BEBF0FBE4A
:102B1000ADBF0817190709F448C00F2EF5E5CF2EF1
:102B2000F3E0DF2EF02D0AECC5010E94470ACE012A
:102B300001960E94F80CE980FA80809199079091A3
:102B40009A07880F991F9C01220F331F220F331FF2
:102B5000820F931FF601E80FF91F118610862DB71B
:102B60003EB72A5C30400FB6F8943EBF0FBE2DBF73
:102B7000EDB7FEB73196DE011196802F0D900192D0
:102B80008150E1F70E94571380919D0790919E0715
:102B9000ADB7BEB7A653BF4F0FB6F894BEBF0FBEBA
:102BA000ADBF8E159F0509F0BFCF8C010A191B0917
:102BB0000130110559F42091DC023091DD02809141
:102BC0009F079091A0072817390721F18091DC0217
:102BD0009091DD022091690230916A028217930779
:102BE00021F4BFEF0F3F1B07A9F00A30110539F49C
:102BF00020916702309168028217930759F0209163
:102C00006B0230916C028217930711F52FEF063F8C
:102C10001207F1F48AE590E00E949C068091DC02A4
:102C20009091DD02039664E070E00E94A31D9093F2
:102C3000DD028093DC020E9430088FEF9FEFACE250
:102C400081509040A040E1F700C000000E9434088D
:102C50009FEF0F3F190759F42091DC023091DD02FC
:102C600080919F079091A0072817390719F180914B
:102C7000DC029091DD022091690230916A02821794
:102C8000930719F401301105A9F0AFEF063F1A07B9
:102C900039F420916702309168028217930751F04E
:102CA00020916B0230916C028217930709F50A306C
:102CB0001105F1F48AE590E00E94A7068091DC02FC
:102CC0009091DD02019664E070E00E94A31D909354
:102CD000DD028093DC020E9430088FEF9FEFACE2B0
:102CE00081509040A040E1F700C000000E943408ED
:102CF00060919D0770919E076B33710509F49EC02A
:102D00000F2EF5E5EF2EF3E0FF2EF02D0F2EF2E45F
:102D1000CF2EF2E0DF2EF02D0F2EFAEC9F2EF02DAD
:102D2000CE0101964BE350E00E94C30A09811A814B
:102D3000C753DF4FA880B980C95CD0408091990704
:102D400090919A07880F991F9C01220F331F220F21
:102D5000331F820F931FF701E80FF91F11861086AA
:102D600082E06EE0A50122E030E00E94AD01A114F6
:102D7000B10491F50E94CD0581E00E941901C601C0
:102D80000E947E0160919D0770919E07CE01019681
:102D90004BE350E00E94C30A09811A81C753DF4FF9
:102DA00048815981C95CD0408091990790919A07D8
:102DB000880F991F9C01220F331F220F331F820F90
:102DC000931FF701E80FF91F118610864115510571
:102DD00089F2942F852F02C09A2D8B2D1A83098397
:102DE000C753DF4F9883C95CD040C653DF4F8883F9
:102DF000CA5CD040ADB7BEB7AA5CB0400FB6F8947D
:102E0000BEBF0FBEADBF1196FE013196892D019058
:102E10000D928150E1F70E94571360919D077091C8
:102E20009E072DB73EB726533F4F0FB6F8943EBFCF
:102E30000FBE2DBF6B33710509F072CF0E94CD0517
:102E40008091DC029091DD0220919F073091A007D4
:102E50008217930729F48CE390E00E948D080BC041
:102E60002091690230916A028217930721F48CE362
:102E700090E00E945A088FEF6FEF0E941A0888ECCA
:102E800090E00E94860610929E0710929D07E6EC45
:102E9000F0E010828FEF97E40197F1F700C0000097
:102EA00082E08083AFEFB7E41197F1F700C0000034
:102EB0000E94CD050E9450020E9430088FEF9FEFC4
:102EC000ACE281509040A040E1F700C000000E94B9
:102ED000340880EA90E00E945A088091670290913D
:102EE00068029093DD028093DC02C653DF4F0FB679
:102EF000F894DEBF0FBECDBFDF91CF911F910F9130
:102F0000FF90EF90DF90CF90BF90AF909F9008958B
:102F1000AF92BF92CF92DF92EF92FF921F93CF9327
:102F2000DF93CDB7DEB7CA5CD0400FB6F894DEBFF2
:102F30000FBECDBF5C010E94CD0581E00E9419014A
:102F40008BE492E00E947E01C5010E94470ACE01F7
:102F500001960E94F80CE980FA80C753DF4F488140
:102F60005981C95CD0408091990790919A07880F48
:102F7000991F9C01220F331F220F331F820F931FB3
:102F8000FC01EB5AFC4F118610864115510579F46E
:102F9000CE0101960E94F80CE980FA80C753DF4FFA
:102FA00048815981C95CD0404115510589F3FA82A5
:102FB000E982C753DF4F59834883C95CD0408DB73E
:102FC0009EB78A5C90400FB6F8949EBF0FBE8DBF2F
:102FD000ADB7BEB71196FE0131968AEC01900D9205
:102FE0008150E1F70E945713ADB7BEB7A653BF4F4C
:102FF0000FB6F894BEBF0FBEADBF80919D079091F4
:103000009E078E159F0509F448C00F2EF5E5CF2EBB
:10301000F3E0DF2EF02D1AECC5010E94470ACE0125
:1030200001960E94F80CE980FA80809199079091AE
:103030009A07880F991F9C01220F331F220F331FFD
:10304000820F931FF601E80FF91F118610868DB7C6
:103050009EB78A5C90400FB6F8949EBF0FBE8DBF9E
:10306000EDB7FEB73196DE011196812F0D900192DA
:103070008150E1F70E945713ADB7BEB7A653BF4FBB
:103080000FB6F894BEBF0FBEADBF80919D07909163
:103090009E078E159F0509F0BFCF0E94CD05E090D9
:1030A0009D07F0909E07EA18FB08B1E0EB16F104CB
:1030B00059F42091DC023091DD0280919F079091BC
:1030C000A0072817390739F18091DC029091DD02C1
:1030D0002091690230916A028217930729F42FEF39
:1030E000E2162FEFF206B9F0AAE0EA16F10439F47D
:1030F00020916702309168028217930761F0209156
:103100006B0230916C028217930749F4B6EFEB160D
:10311000BFEFFB0621F480E090E00E94BC022FEF9D
:10312000E2162FEFF20659F42091DC023091DD0215
:1031300080919F079091A0072817390731F180915E
:10314000DC029091DD022091690230916A028217BF
:10315000930721F4A1E0EA16F104B9F0B6EFEB16FB
:10316000BFEFFB0639F420916702309168028217A5
:10317000930759F020916B0230916C0282179307EC
:1031800041F42AE0E216F10421F484EB90E00E947D
:10319000BC0284EB90E00E94F5028FEF9FE7A4E071
:1031A00081509040A040E1F700C0000080E090E036
:1031B0000E94F5028AE590E00E94BC020E94500243
:1031C0000E9430088FEF9FEFACE281509040A0400A
:1031D000E1F700C000000E9434080E94AE020E9485
:1031E000B502C653DF4F0FB6F894DEBF0FBECDBF9A
:1031F000DF91CF911F91FF90EF90DF90CF90BF9024
:10320000AF9008950F931F93CF93DF93DC01CB0111
:103210008C01ED0181E00E94190186E592E00E9497
:103220007E018091B9079091BA0781309105C9F765
:1032300080919D0790919E07009711F40E94FA0DCE
:1032400080916502909166028C179D0721F4C80158
:103250000E9406150AC080916302909164028C1747
:103260009D0719F4C8010E948817DF91CF911F9123
:103270000F910895CF93DF9300D000D0CDB7DEB784
:10328000E1EAF7E0ADEBB7E0CF014496119211927D
:103290001D921D92E817F907C9F71092B607109210
:1032A000B5071092D2071092D1070E941F080E9402
:1032B000D6000E943E010E94D8088AE50E947C0246
:1032C0008FEF9FE7A6E181509040A040E1F700C05A
:1032D000000080E00E9495028FEF9FE7A6E18150F9
:1032E0009040A040E1F700C000000F2EF1EA8F2EC1
:1032F000F7E09F2EF02DD4015496BA83A98344247D
:1033000055242224332423940F2EFDEB6F2EF7E057
:103310007F2EF02DF3017496FC83EB8381E00E94F5
:10332000190180919D0790919E079E838D83009740
:1033300031F4ABE3B0E0B0939E07A0939D070E94E9
:10334000D7136B017C018B015701ED81FE81F09356
:103350009E07E0939D076115710509F474C0809183
:103360006502909166028E159F0519F40E94440231
:1033700009C080916302909164028E159F0511F43B
:103380000E944C0268017501C701B6010E94021932
:1033900080916502909166028A159B0539F5D301EB
:1033A0008D919C9111970817190749F0EFEBF7E001
:1033B000C101219131912017310799F401C0C20157
:1033C000880F991F860D971DFC0111821082AB8119
:1033D000BC818D919C911197019711969C938E932E
:1033E0009DCF01968A30910521F798CF8091630295
:1033F000909164028A159B0509F090CFF4018081B9
:1034000091810817190749F0E3EAF7E0C10121911A
:1034100031912017310791F401C0C201880F991F23
:10342000880D991DDC0111961C921E92E981FA818A
:103430008081918101979183808370CF01968A303A
:10344000910529F76BCF8091950790919607813070
:10345000910509F063CF0E94CD050E9430088FEFDF
:103460009FEFA0EE81509040A040E1F700C0000027
:103470000E943408FFCF5058BB27AA270ED04DC159
:103480003ED130F043D120F031F49F3F11F41EF4CF
:1034900033C10EF4E095E7FB29C1E92F4FD180F34A
:1034A000BA17620773078407950718F071F49EF541
:1034B00067C10EF4E0950B2EBA2FA02D0B01B901B8
:1034C00090010C01CA01A0011124FF27591B99F09A
:1034D000593F50F4503E68F11A16F040A22F232FA6
:1034E000342F4427585FF3CF469537952795A795F6
:1034F000F0405395C9F77EF41F16BA0B620B730B9D
:10350000840BBAF09150A1F0FF0FBB1F661F771F0D
:10351000881FC2F70EC0BA0F621F731F841F48F4C2
:10352000879577956795B795F7959E3F08F0B3CF48
:103530009395880F08F09927EE0F97958795089532
:103540000CD0EBC0E3D040F0DAD030F021F45F3F94
:1035500019F0CCC0511115C1CFC0F0D098F3992308
:10356000C9F35523B1F3951B550BBB27AA27621747
:103570007307840738F09F5F5F4F220F331F441F8C
:10358000AA1FA9F333D00E2E3AF0E0E830D09150C4
:103590005040E695001CCAF729D0FE2F27D0660FB1
:1035A000771F881FBB1F261737074807AB07B0E8F0
:1035B00009F0BB0B802DBF01FF2793585F4F2AF006
:1035C0009E3F510568F092C0DCC05F3FECF3983E2F
:1035D000DCF3869577956795B795F7959F5FC9F763
:1035E000880F911D9695879597F90895E1E0660FEC
:1035F000771F881FBB1F621773078407BA0720F065
:10360000621B730B840BBA0BEE1F88F7E0950895CD
:1036100004D06894B111B5C0089598D088F09F5730
:1036200090F0B92F9927B751A0F0D1F0660F771F0E
:10363000881F991F1AF0BA95C9F712C0B13081F0EE
:103640009FD0B1E008959CC0672F782F8827B85F7E
:1036500039F0B93FCCF3869577956795B395D9F74F
:103660003EF490958095709561957F4F8F4F9F4F59
:103670000895E89409C097FB3EF490958095709565
:1036800061957F4F8F4F9F4F9923A9F0F92F96E9AE
:10369000BB279395F695879577956795B795F11123
:1036A000F8CFFAF4BB0F11F460FF1BC06F5F7F4FC0
:1036B0008F4F9F4F16C0882311F096E911C07723D2
:1036C00021F09EE8872F762F05C0662371F096E8DB
:1036D000862F70E060E02AF09A95660F771F881FAA
:1036E000DAF7880F9695879597F9089597F99F6768
:1036F00080E870E060E008959FEF80EC089500247A
:103700000A941616170618060906089500240A9446
:1037100012161306140605060895092E0394000CCC
:1037200011F4882352F0BB0F40F4BF2B11F460FF5B
:1037300004C06F5F7F4F8F4F9F4F089557FD905884
:10374000440F551F59F05F3F71F04795880F97FB65
:10375000991F61F09F3F79F087950895121613061F
:103760001406551FF2CF4695F1DF08C0161617064E
:103770001806991FF1CF8695710561050894089583
:10378000E894BB2766277727CB0197F908950BD0DC
:10379000C4CFB5DF28F0BADF18F0952309F0A6CF23
:1037A000ABCF1124EECFCADFA0F3959FD1F3950FD5
:1037B00050E0551F629FF001729FBB27F00DB11DB5
:1037C000639FAA27F00DB11DAA1F649F6627B00D45
:1037D000A11D661F829F2227B00DA11D621F739F2E
:1037E000B00DA11D621F839FA00D611D221F749F3C
:1037F0003327A00D611D231F849F600D211D822F83
:10380000762F6A2F11249F5750408AF0E1F08823C9
:103810004AF0EE0FFF1FBB1F661F771F881F9150D6
:103820005040A9F79E3F510570F060CFAACF5F3F8F
:10383000ECF3983EDCF3869577956795B795F79509
:10384000E7959F5FC1F7FE2B880F911D9695879591
:1038500097F90895FA01EE0FFF1F30962105310503
:1038600099F16115710561F48038BFE39B0749F157
:1038700068949038810561F08038BFEF9B0741F074
:10388000992342F5FF3FE1053105210511F1E89447
:103890000894E795D901AA2329F4AB2FBE2FF85F2E
:1038A000D0F310C0FF5F70F4A695E0F7F73950F041
:1038B00019F0FF3A38F49F779F930CD00F9007FCD4
:1038C000905808953EF018CF60E070E080E89FE3E4
:1038D00008954FE79F775F934F933F932F939ED029
:1038E0002F913F914F915F9152DF05C019F40EF077
:1038F000FDCE46CF01CF2ADFC8F39638C0F707F8D0
:103900000F92E8942BE33AEA48EB5FE74EDF0F9221
:103910000F920F924DB75EB70F92C0D0E4EEF0E079
:1039200016D04F915F91EF91FF91E595EE1FFF1F2C
:1039300049F0FE57E0684427EE0F441FFA95E1F77F
:103940004195550B32D00F9007FE26C00895DF93A6
:10395000CF931F930F93FF92EF92DF927B018C0125
:10396000689405C0DA2EEF011EDFFE01E894A591F0
:103970002591359145915591AEF3EF018EDDFE0114
:103980009701A801DA9479F7DF90EF90FF900F91FB
:103990001F91CF91DF9108959B01AC0160E070E031
:1039A00080E89FE3CDCDA2CEACC0D0DEE8F3992372
:1039B000D9F3940F511DBBF39150504094F059F03E
:1039C000882332F0660F771F881F91505040C1F74F
:1039D0009E3F510544F7880F911D9695879597F95D
:1039E00008955F3FACF0983E9CF0BB278695779595
:1039F0006795B79508F4B1609395C1F7BB0F58F779
:103A000011F460FFE8CF6F5F7F4F8F4F9F4FE3CF81
:103A1000B8CE0EF076C070CE689468CE97DEC8F34C
:103A20009923D1F3C6F3DF93CF931F930F93FF92A4
:103A3000C92FDD2788232AF02197660F771F881F5B
:103A4000DAF720E030E040E85FEB9FE3883920F0D0
:103A5000803E30F021968F770FDDECE0F1E003C07F
:103A60000BDDE9E3F1E073DF8B01BE01EC01FB2E1E
:103A70006F5771097595771F880B990BFCDD28E14D
:103A800032E741E35FE38FDEAF2D9801AE01FF9097
:103A90000F911F91CF91DF9100DD3FCEFA01DC0144
:103AA000AA0FBB1F9B01AC01BF5728F42227332765
:103AB000442750781FC0B75188F4AB2F0024469597
:103AC00037952795011CA395D2F3002069F0220FAA
:103AD000331F441FB395DAF30DD0CDCC613071059F
:103AE000A0E88A07B94630F49B01AC016627772726
:103AF00088279078309621F0208331834283538346
:103B000008959F3F31F0915020F487957795679500
:103B1000B795880F911D9695879597F90895AA1BDB
:103B2000BB1B51E107C0AA1FBB1FA617B70710F0A8
:103B3000A61BB70B881F991F5A95A9F780959095DA
:103B4000BC01CD01089597FB092E07260AD077FD09
:103B500004D0E5DF06D000201AF4709561957F4F00
:103B60000895F6F7909581959F4F0895F894FFCFAB
:103B7000646561646C6F636B696E6600666F6C6C24
:103B80006F770074726176656C5061746800666569
:103B90007463685375727669766F72506C6F7400D7
:103BA000667265656E6F64650073657276655265F1
:103BB0006400646561646C6F636B00736572766545
:103BC000477265656E00706572666F726D4D535217
:0E3BD000005A00090008000300020001000076
:00000001FF
